:020000040001F9
:10B0200018F09FE518F09FE518F09FE518F09FE5F0
:10B0300018F09FE518F09FE518F09FE518F09FE5E0
:10B04000A4B0010060B0010064B0010068B001006C
:10B050006CB0010074B0010070B0010078B0010064
:10B06000820000EA830000EA840000EA850000EA2A
:10B07000AA0000EA850000EAA00000EAAC0840004F
:10B080007C1700000C334000200000001C3A4000F8
:10B09000F00200002C334000F00600000C3D4000A0
:10B0A000F0020000DF00A0E300F021E130001FE526
:10B0B00030101FE5003081E00040A0E103D0A0E1A6
:10B0C00084219FE5030054E104208434FCFFFF3A0F
:10B0D000D700A0E300F021E15C001FE55C101FE554
:10B0E000003081E00040A0E103D0A0E158219FE5BD
:10B0F000030054E104208434FCFFFF3ADB00A0E3AA
:10B1000000F021E188001FE588101FE5003081E094
:10B110000040A0E103D0A0E12C219FE5030054E111
:10B1200004208434FCFFFF3AD200A0E300F021E1C8
:10B13000AC001FE5AC101FE5003081E00040A0E14D
:10B1400003D0A0E104219FE5030054E104208434EE
:10B15000FCFFFF3AD100A0E300F021E1C8001FE5A9
:10B16000C8101FE5003081E00040A0E103D0A0E15D
:10B17000DC209FE5030054E104208434FCFFFF3A07
:10B180000080A0E30090A0E300A0A0E300B0A0E353
:10B1900000C0A0E3D300A0E300F021E110011FE50F
:10B1A00010111FE5003081E00040A0E103D0A0E1D4
:10B1B000A0209FE5030054E104208434FCFFFF3A03
:10B1C0000E0000EB170000EB0000A0E30010A0E36E
:10B1D0000020A0E30030A0E30040A0E30050A0E383
:10B1E0000060A0E30070A0E30080A0E30090A0E373
:10B1F00000A0A0E300B0A0E300C0A0E3250000EAA7
:10B2000054009FE554109FE554209FE50130A0E1D4
:10B21000023083E0030051E1044090340440813463
:10B22000FBFFFF3A1EFF2FE138009FE538109FE536
:10B23000003081E00040A0E10020A0E3030054E1E1
:10B2400004208434FCFFFF3A1EFF2FE1AAAAAAAA19
:10B25000CCCCCCCCDDDDDDDDBBBBBBBB80170200C5
:10B2600000084000AC000000AC0840007C17000063
:10B2700004F01FE5BD22000004F01FE5BF2200001E
:10B2800004F01FE5C122000004F01FE5C322000006
:10B2900004F01FE5C522000004F01FE53BB50100E6
:10B2A000000000000000000000000000000000009E
:10B2B000000000000000000000000000000000008E
:10B2C000000000000000000000000000000000007E
:10B2D000000000000000000000000000000000006E
:10B2E000000000000000000000000000000000005E
:10B2F000000000000000000000000000000000004E
:10B300000F502DE9680400FA0F50BDE804F05EE22A
:10B31000000000000000000000000000000000002D
:10B320000F502DE93D0400FB0F50BDE804F05EE234
:10B3300008B500920B0002009E499FA001F0FDF9A4
:10B3400008BD1CB501930B009A49009202000B3115
:10B35000A2A001F0F2F91CBD1CB501930B009549A8
:10B360000092020018319DA001F0E7F91CBD0B000E
:10B370009049020010B52431A5A001F0DEF910BDFE
:10B3800010B504000100AEA001F0D7F9FDF7B6EA50
:10B39000FDF7BEEA01F07AFAAD48844206D0AD4826
:10B3A000844203D00A2001F085F9FEE710BD1CB5E8
:10B3B000A949062200206B4600F0E3FD68460078AC
:10B3C000FF2813D168464078FF280FD1684680785F
:10B3D000FF280BD16846C078FF2807D1684600795E
:10B3E000FF2803D168464079FF2804D09B480622F5
:10B3F0006946FDF745FA1CBD00200121C905886199
:10B40000704710B5112000F09AFE10BD0EB5002057
:10B4100000F049FFFF20013000F07EFB012168466B
:10B420000170172141700121C94381800021C18031
:10B430008B4802900120C005416A022211434162FB
:10B44000416A0722120391434162416A0212114389
:10B450004162684601F042F80EBD10B581484C21AA
:10B46000FDF728FA80497F480160804941608049A2
:10B4700081608049C16080490161804941618049A2
:10B4800081618049C161804901628049416280498E
:10B4900081628049C162804901638049416380497A
:10B4A00081638049C163804941648049816410BDE2
:10B4B000FEB50022009201920378662B0CD07C4BE3
:10B4C0001B78002B2ED07B4C012323707A4B7C4DB4
:10B4D0001A707A4B1C7821E0AA216A46117000216B
:10B4E00043185B785418491C06296370F8DB35242F
:10B4F000E40207222100002000F0FAFC07222100CC
:10B5000000206B4600F006FD03F0FEF9142001F068
:10B51000D1F8FEE7865C1719521CEE558A42F9DB1A
:10B5200060181870FEBD674967480160674941604F
:10B53000674981606749C160704700F08FFE012054
:10B54000FDF795F900F086FE00F070FC01F08EF832
:10B55000FFF7E9FF00F053FFE120400201F042F95C
:10B560005D4801F005FA00F06DFC3E48FFF775FFFD
:10B5700001210020C905886100F065FAFFF717FF77
:10B580005648016802121143016003214160FDF732
:10B59000CAE9FDF7D0E9524C00F0B6FA200001F0FC
:10B5A0009CF8F9E701000020002901D0022900D110
:10B5B00045487047AE0A020025732C636F6E6469BC
:10B5C00074696F6E2025732C66696C652025732C59
:10B5D0006C696E65203D2025640D0A0025732C7072
:10B5E0006172616D30203D2025642C706172616D47
:10B5F00031203D2025642C66696C65203D20257333
:10B600002C6C696E65203D2025640D0A0000000049
:10B6100025732C64617461203D2025642C6C656E5B
:10B62000677468203D2025642C66696C65203D2088
:10B6300025732C6C696E65203D2025640D0A000081
:10B640006572726F72203D2025780D0A000000009F
:10B65000C3C3C3C3A5A5A5A5FC9F00002900400046
:10B6600003B40100B8014000A1E70100D5E70100E3
:10B6700007E60100F9E6010025E7010077E6010091
:10B6800001B70100C9BA010019BB0100FFBC0100EC
:10B6900099BD01006DBD01007BBD010081B30100BA
:10B6A00031B3010043B3010001C701006FC80100BD
:10B6B00061084000620840006308400064084000E0
:10B6C000000C4000A5C80100AC084000E7C801001C
:10B6D0006DC8010089C80100B1B4010040008000BC
:10B6E000FF3F000010B50020F7F709F80020F2F73F
:10B6F00088FC0020F9F707FE0020FBF7E2FC10BDF4
:10B7000010B50120F6F7FBFF0120F2F77AFC0120CB
:10B71000F9F7F9FD0120FBF7D4FC10BD10B5E8F7EF
:10B72000E1F90020EBF7FCFCE8F7A2FA0020EEF7C5
:10B73000E9FEEEF770FF10BD70B5FDF7E0E805001B
:10B74000FDF7E6E804000120C00781210904C86173
:10B75000C869C00FFCD1C8690A6A496A101808187C
:10B76000FDF785F8EBF790FD0120EBF7D9FCE8F742
:10B77000B9FA0120EEF7C6FEE8F7B4F9002D01D1C1
:10B78000FDF7D0E8002C01D1FDF7D4E870BDA14849
:10B790000068002801D000207047012070479D49B3
:10B7A00001200968002908D19A494969002904D172
:10B7B0009849896A002900D1002070470822C27088
:10B7C000042282700B224270002202708120000449
:10B7D0004268120ECA704268120C8A704268120ADD
:10B7E0004A70406808707047F8B58B4E8B4D8127C2
:10B7F0003F043C69002C7DD0600716D5F078FF2807
:10B8000006D0696AC2000420904081430143696206
:10B810000420B86100F05CFAF178FF2905D0686A6D
:10B82000CA000421914088436862E00718D0F0788C
:10B83000FF2806D0696AC20001209040814301437D
:10B8400069620120B86100F07FFAF0F788FCF178B6
:10B85000FF2905D0686ACA000121914088436862C7
:10B86000200616D5F078FF2806D0696AC20080202D
:10B8700090408143014369628020B861F0F76FFC1A
:10B88000F178FF2905D0686ACA0080219140884379
:10B89000686220071FD5F078FF2806D0696AC200C9
:10B8A000082090408143014369620820B861A007E5
:10B8B00002D50220B86184430020EDF77BFB584895
:10B8C00000F00BFFF178FF2905D0686ACA00082153
:10B8D000914088436862E0051FD5B07EFF2806D0FE
:10B8E000696AC20002209040814301436962FF20DF
:10B8F000013000E08DE0B861A00702D50220B861F8
:10B9000084430120EDF756FBB17EFF2905D0686A1C
:10B91000CA000221914088436862A00716D5F078DA
:10B92000FF2806D0696AC20002209040814301438B
:10B9300069620220B861EDF774FBF178FF2905D048
:10B94000686ACA000221914088436862A00517D541
:10B95000B07EFF2806D0696AC20001209040814372
:10B960000143696201204002B861F0F762FCB17ED8
:10B97000FF2905D0686ACA000121914088436862A6
:10B98000600616D5F078FF2806D0696AC20040200C
:10B9900090408143014369624020B861EDF705FBA7
:10B9A000F178FF2905D0686ACA0040219140884398
:10B9B0006862E00616D5F078FF2806D0696AC200F2
:10B9C000102090408143014369621020B861ECF778
:10B9D00059F8F178FF2905D0686ACA001021914012
:10B9E00088436862A00600D403E7F178FF2906D0F7
:10B9F0006A6ACB0020209840824302436A6220207A
:10BA0000B861FF29F0D06A6AC900884082436A623F
:10BA1000EFE6F8BD6405400064014000400081008D
:10BA2000FF3F00000121C90781200004C161C169F5
:10BA3000C90FFCD1006AFF21D531884201D3012012
:10BA400070470020704710B5DE4C00202060606019
:10BA5000A060E060E6F7F5FD6B22DB49D200002034
:10BA6000E6F700FF0122D94992020120E6F7FAFE2B
:10BA70005722D74912010220E6F7F4FE0322D549E6
:10BA800052020320E6F7EEFED34801F055F90220FA
:10BA9000FFF788FD0100D14A0020FCF70AFEFBF702
:10BAA00076FBFCF7D4FBFFF71DFEFFF737FEE7F749
:10BAB000F9FB0020F0F79DF901206073A0731020BE
:10BAC000207302F0D3FE10BD70B5FCF718EF05002F
:10BAD000FCF71EEF0400E6F7CDFDFBF769FBFFF76F
:10BAE0002BFE0120F0F785F9BB4800688047002D48
:10BAF00001D1FCF718EF002C01D1FCF71CEF70BD51
:10BB000010B5FFF75BFE10BDAE4810B5807AC007D8
:10BB100001D1E6F792FE10BD70B50600FCF7EEEE1F
:10BB20000500FCF7F6EEA749040048893043488138
:10BB3000AB494B78FF2B0BD0AA4A516ADB00F026A9
:10BB40009E400007000F9840B1430001014351623D
:10BB5000002D01D1FCF7E6EE002C01D1FCF7EAEE56
:10BB600070BDF8B5A0489E4E009071789D4C00279E
:10BB70000E25FF2905D0606ACA002900914088433C
:10BB80006062E6F797FD00287ED071780127FF29D3
:10BB900008D0606ACB002A009A40904302229A4063
:10BBA00010436062874A507B0028EDD050890028FE
:10BBB0006AD1FF2908D0606ACB00290099408843E8
:10BBC0000421994008436062907B002802D17D20C7
:10BBD000C0010090FFF726FF0028FBD07948017BC9
:10BBE0006846E7F70DFB00286ED07178FF2908D072
:10BBF000606ACA00290091408843062191400843A9
:10BC00006062FFF7C4FD002860D07178FF2908D07A
:10BC1000606ACA0029009140884308219140084386
:10BC200060626848017B6846F0F7FDFB00284BD056
:10BC30007178FF2908D0606ACA00290091408843C2
:10BC40000A21914008436062FCF799FD00283DD02D
:10BC500000F0CEFE002839D07178FF2907D0606A45
:10BC6000C9008D400C228A40A843104360625F489F
:10BC7000C16B544810304160009D05605C488542AE
:10BC800007D3FF225A3200E01EE05AA15BA0FFF763
:10BC90004FFB2800142148434A49401E897BEEF798
:10BCA00010F901204002FFF737FF4B48806A8047B8
:10BCB000022007437078FF2806D0616AC200012085
:10BCC00090408143014361623800F8BD0027FBE7E3
:10BCD000434810B54278FF2A06D04249486AD3004B
:10BCE00001229A40904348620120FFF715FFEEF7CA
:10BCF00008F9FCF737FD464800F0EFFC10BD70B5C1
:10BD00000600FCF7FCED0500FCF702EE2D490400EF
:10BD10004889B043488132494B78FF2B0BD0314AD8
:10BD2000516ADB00F0269E400007000F9840B143A7
:10BD3000000101435162002D01D1FCF7F4ED002C0C
:10BD400001D1FCF7F8ED70BD1E4810B5807AC00730
:10BD50000BD0EEF7E3F80220E6F71CFD0120FFF719
:10BD6000CEFF01204002FFF7CAFF10BD7D2110B5B4
:10BD70004001C900FCF748FD10BD10B5FFF7F6FF04
:10BD80001049086010BD0F48408970470D48407B3E
:10BD900070470C48807B704710B5040014488442FB
:10BDA00004D31C4A13A11CA0FFF7C2FA054A50682D
:10BDB000011988088300C91A51606101091B08181C
:10BDC00010BD7047BC084000300D4000941040008A
:10BDD000A01440001C1A40008401400035084000B7
:10BDE000640140004000810080BB000040008000F2
:10BDF00040420F00727769702E630000736C6F749D
:10BE00005F636E74203C20313030303030300000C1
:10BE1000FF3F0000870300006C706379636C6573FB
:10BE2000203C2031303030303030000000200449D8
:10BE300002007D23DB00401C04C19842FBDB7047FD
:10BE40000040810083480521C9030160002101727F
:10BE500001214902416001214172704770B57E4C59
:10BE60000500A16000F0E0F800F0D8F861687C20DF
:10BE7000814368010843606000F0E1F800F0E5F8F4
:10BE80000128FBD0E46800F0D5F8200070BD70B543
:10BE9000714C0500A160E26000F0C6F800F0BEF849
:10BEA00061687C2081436801001D0843606000F0E8
:10BEB000C6F800F0CAF80028FBD100F0BBF870BD4E
:10BEC00070B5654C0500A16000F0AEF800F0A6F872
:10BED00061687C208143680108300843606000F09D
:10BEE000AEF800F0B2F80028FBD100F0A3F870BD66
:10BEF00070B506008D1801280BD84C0A640206E0C4
:10BF000021003000FFF7DCFFFF34FF340234AC4285
:10BF1000F6D370BDF8B51C0015000E00070001280F
:10BF20002ED84C49B8000858A84229D310E06078B0
:10BF30002278E17800020243A07809060004084351
:10BF4000024331003800FFF7A2FF241D2D1F761C8D
:10BF5000042DECD2002D13D00022D243002009E0A2
:10BF6000C100FF238B409A43235C8B40401C1A4343
:10BF70000006000EA842F3D331003800FFF787FF18
:10BF8000F8BDF8B5070000200E00C043314900900D
:10BF9000B80008581D001400A04224D3012F22D855
:10BFA0000CE031003800FFF759FF00900422280010
:10BFB0006946FCF765FC241F2D1D761C042CF0D26D
:10BFC000002C10D031003800FFF748FF009000200F
:10BFD00007E00099C200D140401C0006000E297005
:10BFE0006D1CA042F5D3F8BD70B502001B480029B6
:10BFF0000FD01B4E14780023521C45086040C00728
:10C00000800F305A64085B1C6840082BF5D3491E2A
:10C01000F0D170BD70470020704770470E48A521D1
:10C020000161C321416170470E490B4801600E490F
:10C0300001607047084800210160016070470648B0
:10C040004168012211434160704703484068C007BE
:10C05000C00F7047D808400000308000FFFF00008C
:10C0600000084000A958000058A90000F7B50209CF
:10C070009700724AD25916689646704A1432D259BD
:10C0800015680207120F012394461C0008329440E1
:10C09000624693401A04012914D0002916D00329BE
:10C0A00017D09E4334431100294305072D0F01206B
:10C0B000A840029B0006002B10D0012B12D0022BAF
:10C0C00015D112E03343A3431C0004E033431C4367
:10C0D000E9E733431C4329009143E6E722438243C7
:10C0E000140004E09443044301E094438443704605
:10C0F000046052481430C0590160FEBD01090207B6
:10C1000088004E49120F1431085800680004000ED0
:10C11000D040C007C00F704702099300474A10B5CE
:10C120001432D458226800070123000F83400029ED
:10C1300001D01A4300E09A43226010BD704710B549
:10C1400004000121FFF7E8FF00212000FFF7E4FFD2
:10C1500010BD002802D03949091F086070473848CF
:10C1600010B500218160491E0161364801688213C3
:10C170009143016034A000F0E0FA3048001F0068ED
:10C18000002800D0804710BD00B5002202212020E9
:10C19000FFF76CFF002202212020FFF767FF00223B
:10C1A00002212020FFF762FF002202212020FFF75A
:10C1B0005DFF002202212020FFF758FF00BD20482C
:10C1C0004038026821490A6082684A6002698A60D0
:10C1D0008269CA60026A0A61426814310A60C268F0
:10C1E0004A6042698A60C269CA60426A0A61184943
:10C1F000016041608160C160016141618161C16133
:10C2000001624162704711490D480A684038026076
:10C210004A6882608A680261CA688261096901624B
:10C220000A4914310A6842604A68C2608A684261F9
:10C23000CA68C261096941627047704708084000D6
:10C240004065800040008000310D0A00E408400095
:10C25000FFFF000061490120087070476048816954
:10C26000604A11438161C168FF2212049143C16099
:10C27000C168152212041143C1605B4A41048A63FC
:10C28000C26902239A43C26100224A60FF22B2328D
:10C290000A604A6B40231A434A634106C1637047F0
:10C2A0005248407870475149487070474C480021C7
:10C2B000016041604E494F4A51620021C943016209
:10C2C0005A218162416A0904090C4162416A4A4A61
:10C2D000114341620A2000F041FDFEE7434810B5DA
:10C2E000012101703E48C26980231A43C261FF23C5
:10C2F000B13342041360C36902242343C361C36999
:10C300000B43C361C36908242343C361C369042485
:10C310002343C361516010BD3448017801290AD11B
:10C32000002101702E498020C861FF21B231000434
:10C3300001602D49816370470120C1054860704745
:10C340000120C005806B800701D5012070470020C7
:10C3500070472349CA6902239A43CA6100234904EA
:10C36000012809D0204A623202280AD0032802D1CB
:10C37000042048600A6070474B60FF20B2300860BC
:10C3800070474B60F6E7C90101431A4A0120400794
:10C39000106118488030026901231B059A4302612D
:10C3A00002690F23DB019A43026101614169090DB2
:10C3B0000905416141690322120311434161FEE70E
:10C3C0000C49803108614869000D000548614869E1
:10C3D0000322120310434861FEE7000036004000CC
:10C3E000400080000010001051050000300840009F
:10C3F000083C20700014800000003234704733483D
:10C400004168890889004160416803221143416005
:10C41000016802121143016070472D482B49886062
:10C420007047F8B5294FBD68FFF776FF81200004FB
:10C43000016B10260904C90F002911D0FA6B254998
:10C440008A604B680968D21AFF23F5335A43224B9E
:10C45000891E59438A4203D2016BB14331430163C0
:10C46000A80603D52020044300F08EFAA80504D5C1
:10C47000012040020443FFF772FEA80703D5022003
:10C48000044300F0D1F8680703D50420044300F00A
:10C49000CBF8280703D50820044300F0C5F8E806C8
:10C4A00002D5344300F0C0F8BC60F8BD70B5074D4C
:10C4B000AC68FFF731FF200401D5FFF795F9E007DD
:10C4C00001D000F0B1F8AC6070BD00004000800009
:10C4D000FFFF0000CC0840007102000030B50028CA
:10C4E00061D00378052B5ED8C188828891425AD8E2
:10C4F000417809078A0F0121012A05D0574A94681B
:10C500000D009D40AC4394600122D205536A04782B
:10C510000D006400A540AB4353624378DB0608D5A9
:10C52000546A03780D005B005B1C9D402C435462F1
:10C5300007E0536A04780D006400641CA540AB4317
:10C540005362C28883881204D3180278D400444A04
:10C55000A418A360136804780F25A400A540AB437A
:10C5600045782D072D0FA5402B43136042783D4B96
:10C5700094073D4A0BD505788468AD005C5113687B
:10C580000078052800D10D2081400B430AE0057892
:10C590000024AD005C5113680078052800D10D20FF
:10C5A00081408B43136030BD052806D82C490A68AA
:10C5B00083000120984002430A60704705280AD88A
:10C5C0008200012001009140521C90400143244808
:10C5D00002688A4302607047052807D820490A6824
:10C5E00080000123401C83401A430A6070470528DD
:10C5F00007D81B490A6880000123401C83409A43E6
:10C600000A607047052801D9002070471449C0000E
:10C610004018C0680004000C7047052803D8114A70
:10C620000021800011507047F8B50D4E7568002448
:10C6300001273800A040284207D00A48A1004158ED
:10C64000002902D02006000E8847641C052CF0DB70
:10C650007560706828408006FAD1F8BD00658000DA
:10C66000006180000C0940004000800070470949CB
:10C6700088607047074840687047064908607047FF
:10C68000044810B5C0680006000E02D00220E6F78C
:10C6900081F810BD00E000100120C105C8611648F6
:10C6A0002D2149040160A5210904016013490020DE
:10C6B0004870704700220121C905CA610E4908600F
:10C6C0002D235B04C3180B60A5231B04C01808604E
:10C6D0000A480121027041707047084949780129D0
:10C6E00008D12D214904421803490A60A5221204E9
:10C6F0008018086070470000006080003208400029
:10C70000BF4ABE485178405C491C51707047BD48D3
:10C71000C0680006000E7047010010B5B94A00203D
:10C7200007E09468E40204D5D360401C0006000EC4
:10C73000491C0B78002BF4D110BD0FB410B5AF48D5
:10C740000299543003AA03F041FD0400AB48543071
:10C75000FFF7E2FF402C02D9ABA0FFF7DDFF20007E
:10C7600010BC08BC04B018470020704710B5040086
:10C7700086B01422A8A16846FCF782F82209684610
:10C780009F49825C891C0A702207120F805C4870E6
:10C7900000208870080006B010BD70B50500A3A089
:10C7A000FFF7BAFF0424E00029000838C14008065A
:10C7B000000EFFF7DBFFFFF7AFFF641E2406240E19
:10C7C000F1D19BA0FFF7A8FF70BD7D2101B5C90085
:10C7D00003E00220401C8842FCD30098421E0092D5
:10C7E000F7D208BD012110B5C905CA685208520028
:10C7F000CA60E1210902421A88420AD004DC8D494C
:10C80000401A06D0401A04E0501A02D08A49C842A1
:10C8100001D0892000E0102001027A481B3101601C
:10C8200086494160C221016100218161844AC2615F
:10C8300084480268844B1A40026003680322120491
:10C840001343036003681412234303604368934354
:10C8500043606A4840308160C1607C4801682022A2
:10C86000114301607A48E5F71BFD10BD704710B514
:10C87000644800E0C16881688902C90FFAD15F4845
:10C880004021FCF717F810BD012070475D48816911
:10C890000122120491431143816181688903C90F08
:10C8A000FBD0704770B51D0014000E00002805D1A4
:10C8B000FF228E3267A169A0FEF73AFD002E05D156
:10C8C000FF228F3263A169A0FEF732FD002C05D153
:10C8D000FF2290325FA168A0FEF72AFD4748403052
:10C8E000C560846070BDF8B51E0014000F0005001F
:10C8F00005D1FF229C3257A158A0FEF719FD002F49
:10C9000005D1FF229D3253A158A0FEF711FD002C46
:10C9100005D1FF229E324FA157A0FEF709FD3748EF
:10C920003A06403050C0120E3649083805E08B6890
:10C93000DB0202D52B78CB606D1C1300521E120651
:10C94000120E002BF3D1002C04D0002101604160B5
:10C950003000A047F8BD10B52A4A06E00378401C15
:10C960009468A403E40FFBD0D360491EF6D210BD37
:10C97000002801D02249C86070472148C1680029B9
:10C9800001D00021C1607047F8B51E4C666960692E
:10C990001B4D8007C00F0027002807D160694006A3
:10C9A000C00F03D160690006C00F19D0134BA068F7
:10C9B00080020AD5E168A8681A18401CA8601170A6
:10C9C000A8684028F3D1AF60F1E701202870EA6839
:10C9D000002A04D0A86801060848090E9047AF60F5
:10C9E00061693006000E090A090201436161F8BD60
:10C9F000044880688003C00F704700002009400091
:10CA00003408400000638000627566662066756CBD
:10CA10006C200D0A000000003031323334353637D7
:10CA20003839414243444546000000003078000058
:10CA30000D0A00008025000000B2F3FF0110000085
:10CA40000100700000658000FCFFFCFF40008000DA
:10CA50003BC70100756172742E63000062756670D9
:10CA6000747220213D204E554C4C000073697A654C
:10CA700020213D203000000063616C6C6261636BBB
:10CA800020213D204E554C4C0000000070470020F6
:10CA9000704781210904086B07221043086370471F
:10CAA000400876380006001670470068704701603D
:10CAB0007047B8494A6B52005208C00702434A63A4
:10CAC000704710B5B44C002305E022000221491C38
:10CAD0009142FCDB5B1C8342F7DB10BDF8B5AF4C29
:10CAE0002069012109050843206120690F21C9013E
:10CAF00008432061216901204004814321612069AC
:10CB0000C009C00120616069012109030843606117
:10CB10000A20FFF7D6FF61690120400301436161EC
:10CB20000A20FFF7CEFF9E4D4021E8689B4F8843C7
:10CB3000803FE860F8600A20FFF7C3FFE8688021C3
:10CB40000843E860F8600A20FFF7BBFF6069012135
:10CB50000904084360616420FFF7B3FF8F48403841
:10CB60008068C000C10C7D204002FBF74DFE8B4E5B
:10CB7000C005403631688B4A114031603168C00BC6
:10CB8000014331606420FFF79CFF616901200003CD
:10CB9000814361616169400081436161E86880218E
:10CBA0008843E860F8600A20FFF78BFFE8684021BF
:10CBB0000843E860F8606169012000048143616115
:10CBC00020690121490408432061216901200005F1
:10CBD0008143216130680121084330606420FFF700
:10CBE00070FFC820FFF76DFF2069286160696861E8
:10CBF0002068A861E068E861F06A2862F8BD70B555
:10CC00006649694D80390D60684A4A60684B8B609F
:10CC1000684CCC6068480861684848616848886129
:10CC20006848C8616848086268484862684888621D
:10CC30006848C86268480863002048638863C8631E
:10CC4000574920C11CC15549644A40390A60644AA9
:10CC50004A600F2292028A60C8600122D2040A61EF
:10CC600048618861C8615F4A0A6248628862C86236
:10CC7000086348638863C8635B4A48490A604B227B
:10CC800052064A600F22D2068A601A04CA60574AC6
:10CC90000A61012252054A61554A8A61554ACA61B0
:10CCA000554A0A62554A4A62554A8A628122D2002E
:10CCB000CA62544A0A63544A4A638863C86337495C
:10CCC000524A40310A6048608860C8600861486123
:10CCD0008861C861086248622522D2038A624C4A90
:10CCE000CA624C4A0A6348638863C8632B480121BF
:10CCF00009068030016048494160484981604849DF
:10CD0000C1604849016148494161484981614849D8
:10CD1000C1614849016248494162484981624849C4
:10CD2000C1624849016348494163484981634916E2
:10CD3000C163FFF7D3FE70BD45490F22016245492B
:10CD40004162454941612C210A5444498162444968
:10CD50000160444941604449C16150E7002104E059
:10CD60000222521C0A2AFCDB491C8142F8DB704774
:10CD7000002104E00222521C322AFCDB491C8142C1
:10CD8000F8DB704705483949803801633849016349
:10CD9000142096E640008100BC0C00008014800046
:10CDA000B4094000FF00FEFF1032B0C400C29582FB
:10CDB00000A0222F62A2622FCB5E915F1352204807
:10CDC000000AFAE4C47F00AA0580C007083C20706E
:10CDD0006B78039C23BF670E08D0008035340800B1
:10CDE00020008116FF010000D6BE898E82001E0041
:10CDF0000505841000C9080010100101004E103C08
:10CE00004D38100E4D406A0046C42C080100011038
:10CE100048103436001CFF01020405070A0C0F12EB
:10CE2000161A1E22262B30353A40454B51575D636A
:10CE30006970767C83898F969CA2A8AEB4BABFC570
:10CE4000CACFD4D9DDE1E5E9EDF0F3F5F8FAFBFD61
:10CE5000ABCA0100AFCA01008FCA010093CA01002A
:10CE60008DCA0100B3CA0100A1CA010008500080A8
:10CE700008900080FFB505008BB01498002700785B
:10CE8000401E012876D801212420E5F787FD040003
:10CE90002421FBF70FFD149800260078E07761E06D
:10CEA0000720694608761498A17F8019070005902D
:10CEB00040780822B0400143A1771499F00041184E
:10CEC0000019001D091DFBF7DBFC7878012805D14E
:10CED0006946087E0821084369460876E07F0128F4
:10CEE00005D96946087E10210843694608760C98E2
:10CEF00009A90288700007900A520E991E2211405B
:10CF0000AB8A039109A94018C34F002269468CC11E
:10CF1000C249052306AAF5F78CF807001CD1059A2B
:10CF20000799527809A8415A012A01D0012200E04C
:10CF30000022891A0C9A491D118005994978012906
:10CF40000AD107990923405A5B020022801C000481
:10CF5000000C1900F5F740FB0720761C36066946E1
:10CF6000360E087614980078B04205D9002F97D075
:10CF700004E0FFE7812706E0002F07D0002C02D055
:10CF80002000E5F791FD38000FB0F0BD68462C6138
:10CF9000808C0C99088020830E98C00702D0012154
:10CFA000C90300E000210D9801432180A88A0021D7
:10CFB00060802420E8820120E88199481C34AC601C
:10CFC0006860A88AE5F784FFDDE770B505690400AD
:10CFD0006869002801D0E5F767FD0020206128007E
:10CFE000E5F762FD70BD0069002240184277704786
:10CFF00000690022401842777047F8B505000C0020
:10D00000242001F0A7FBC37F00210A00AB422FD9E7
:10D01000018B05270BE0867FD640F607F617BE1B6F
:10D020007118491E0904521C090C1206120EAA425C
:10D03000F1D3032C01D2081916E0032C02D0042CE2
:10D0400008D014E0807FD040C00710D0C91C09046C
:10D05000090C0DE0012B0AD9807FD040C007C01712
:10D060000422101A4018401E0104090C00E000219F
:10D070000800F8BD70B50C0015000600002101F095
:10D080007FFB02002102C120092300010831E5F7DE
:10D090009DFD04001220207002212800FFF7ADFF43
:10D0A000A0800120E0807019807E20722000E5F7CA
:10D0B000A6FD70BD584828307047F8B5040016002A
:10D0C0000D00242001F046FB038B0100802000228C
:10D0D00021E09F1CBC4201D8E01A15E08B7F3F0481
:10D0E0003F0CD340DB0706D07F1C3F043F0CBC4203
:10D0F00001D1032008E06346012B08D97F1C3F04BF
:10D100003F0CBC4203D1042030700020F8BD7F1CCE
:10D110003B041B0C521C2A70CF7F1206120EBA421F
:10D12000BC46F3D29C42D4D2F8BDF8B5242001F01D
:10D1300011FB0400FF20009060690922818892029F
:10D14000914220D1027B0100009202000E329646ED
:10D1500022001A32D71C951D0C3194460FE00E7830
:10D1600001239340F65D1E4207D07346D65C6346AA
:10D17000D35C9E4201D0097818E0521C2A702A78AC
:10D18000022AECD31EE0274A91421BD12100020063
:10D190001D310C32CD1C8C4611E017786346CE5CF5
:10D1A0000123BB401E4208D03A06120E2000FFF7B2
:10D1B00061FF2878401C2870F8BD491C2970297827
:10D1C0000029EAD0818809229202002591420AD1E1
:10D1D000C288018913480223401EE5F7F7FC009935
:10D1E000017045700AE00F4A914209D1C288018955
:10D1F0000C480123401CE5F7E9FC0570E5F7FFFC4E
:10D200006069E5F751FC00212000656101F0B8FA82
:10D210000021E5F75DFEF8BDDC0A02000F180000F2
:10D22000440B020002240000FFB581B003981F00E8
:10D230000C000226E5F781FE00282FD1242001F002
:10D2400089FA05002078012804D8EFF7FBFA9C49F9
:10D25000884212D19B48039A02233900E5F7B6FCB5
:10D26000217801702178012901D9402100E089212C
:10D270004170E5F7C4FC002610E001260398310058
:10D28000E5F726FE6178227828001D3011540C3C09
:10D290006C61002020352870FFF747FF300005B093
:10D2A000F0BDFFB581B003981F000D000226E5F721
:10D2B00044FE002826D1242001F04CFA04002978ED
:10D2C000C07F814212D2687864280FD822001A32B7
:10D2D0008854012603983100E5F7FAFD0C3D65619D
:10D2E000002020342070FFF720FF0BE07548039AE0
:10D2F00001233900801CE5F769FC81210170E5F705
:10D300007EFC00263000CAE7FFB583B000256846E2
:10D3100005710570088817000E006A4601A9FFF71D
:10D32000CCFE04006848069906233A00E5F74EFC57
:10D330003188002C018005D169460978032907D07E
:10D34000032445800471E5F75AFC002007B0F0BDC6
:10D3500002214180F6E7FFB50F0083B00020694647
:10D3600008700871069801AA040A3888FFF7A5FE1C
:10D37000060011D1242001F0EDF9F9790500B87902
:10D380000902084369460979032904D101210028CB
:10D3900010D0012816D080264B48059A0699042300
:10D3A000801EE5F713FC398801808670E5F727FCBD
:10D3B0000020CBE76B461B782819427F99408A43AF
:10D3C000427706E06B461B782A19507F9940084344
:10D3D00050772100280001F0DBF901003948059A57
:10D3E0000223C01CE5F7F2FB29190470497F417044
:10D3F000E5F705FCD0E7FFB583B00020694608706B
:10D400000871180A029004981C00008801AAFFF70E
:10D4100054FE06000025242001F09CF90700002E90
:10D4200008D168460079022814D0032814D00428B3
:10D4300014D080262448059AAB1D2100001FE5F773
:10D44000C5FB04000498002E0188218026716580A8
:10D4500006D028E00125EDE70225EBE70725E9E7FF
:10D4600068460079022804D0032808D0042812D086
:10D4700019E0684600783818807E607113E00298E1
:10D48000694609783818407FC840C107C90F6171E3
:10D49000090AA17107E068460078C000C119601D43
:10D4A000091D01F0B3F92000E5F7A9FB00204DE7C5
:10D4B00010B50878122801D1FFF737FE002010BD03
:10D4C000FFFF000001240000180C000030B503002D
:10D4D0000120002103241A00CA40D20704D04D00C5
:10D4E00022006D1CAA401043491C0906090E092997
:10D4F000F1D330BDFFB585B00E9F040038881D0004
:10D50000FFF7E4FF049028001E210840A18A4C4A3E
:10D51000002301910093029203904A490698132335
:10D5200004AAF4F786FD060022D101212020E5F7A8
:10D5300035FA206106990988018339884183E90712
:10D5400001D00121C903079A11430180A18A4180BA
:10D550001421E1820121E18101001E31A1603A49DB
:10D56000001D6160E6F776F9A08A0021E5F7B0FCBE
:10D57000300009B0F0BD70B504690500606800288E
:10D5800005D0201DE6F7C2F9E5F78EFAF6E7002090
:10D5900028612000E5F788FA70BD70477047284879
:10D5A0009830704730B50400228B648B0920521CE0
:10D5B00013041B0C00222500D540ED0707D05D1C8D
:10D5C0008D4201D1100030BD9B1C1B041B0C521C52
:10D5D0001206120E092AEED330BD10B50300008BDF
:10D5E0005B8B401C0004000C00221C00D440E407AC
:10D5F00008D0914203D1401C0004000C07E0801CBD
:10D600000004000C521C12061216092AEDDB092A2E
:10D6100000D1002010BD02000020802901D98D20FA
:10D620007047062A06D0072A07D0082AF8D107290A
:10D63000F5D170470829F2D170470629EFD370471A
:10D640004C0B02000A1800000C0C0200FFB50C0085
:10D65000142081B001F07EF821780700092931D229
:10D66000FFF7BBFF00282BD061782078FFF7D3FFAE
:10D67000060028D17D680DE028792178884208D1FC
:10D6800000222900381DE6F752F92800E5F70CFAC8
:10D6900002E02D68002DEFD1607801210830E5F718
:10D6A0007DF905002078A11C287160786871627886
:10D6B000A81DFBF7E5F82900381DE6F7D3F802E0CE
:10D6C000822600E081265348039A04990223E5F755
:10D6D0007DFA217801704670E5F791FA002005B0D7
:10D6E000F0BDFFB5002081B0009003980E00E5F773
:10D6F00024FC002802D001284CD04DE0142001F079
:10D7000029F831880700FFF74DFF05004248092D31
:10D7100036D27C6803E02179A94203D02468002C2A
:10D72000F9D117E0002C15D06379039A04999B1D59
:10D73000E5F74CFA05003088A11D288000202871EB
:10D74000607968806279681DFBF79AF82800E5F730
:10D7500056FA21E03D770498010A3800797701F004
:10D7600017F801002B48039A0123401CE5F72EFA15
:10D770000570E5F744FA03980121E5F7A9FB0BE0F2
:10D78000039A04990623E5F721FA31880180802164
:10D790000171DCE7022000900098A0E7F8B51700BF
:10D7A0000D001000E5F7C9FB012831D1142000F06D
:10D7B000D1FF017F0400FFF710FF217F2A780600C8
:10D7C0001548914214D1617F6B783A000902083103
:10D7D0009B1DE5F7FBF904000680002020716878A6
:10D7E000A91C60806A78601DFBF74AF8200009E0F8
:10D7F000617F06233A0009020831E5F7E7F9802145
:10D8000006800171E5F7FBF900213800E5F760FBC0
:10D810000020F8BD01140000140C0000FFB5050045
:10D82000FF2087B0109F1E0001211130E5F7B6F8E8
:10D83000FF2104001131FBF73DF83F2168460175D7
:10D84000E01DF930027B7B781A4302737878012857
:10D8500001D1684601750898694600885E4A002330
:10D86000088230001E210840A98A0093029201918B
:10D8700003905A49062305AA04A8F4F7DAFB002806
:10D88000009007D0002C02D02000E5F70DF9009899
:10D890000BB0F0BD7878012809D16846008A0921CB
:10D8A0004902001D0004000C0022F4F795FE6846B2
:10D8B0002C61008A089908802081F00701D001209E
:10D8C000C003099908432080A88A00216080452070
:10D8D000E8820120FF34E88141480B34AC60686085
:10D8E000A88AE5F7F5FAD2E770B50569040068681B
:10D8F000002801D0E5F7D8F8002020612800E5F7DE
:10D90000D3F870BD006900224018FF300130C272A8
:10D910007047006900224018FF300130C272704722
:10D9200010B50400452000F015FF0189052C03D235
:10D9300008190004000C10BD052C08D1FF3001307F
:10D94000007BC00703D0491D0804000C10BD002057
:10D9500010BD70B50D00002100F012FF6B780200C1
:10D96000C120082100010833E5F730F90400122036
:10D9700020700420FFF7D4FFA0806878A91CE08005
:10D9800020006A780830FAF77BFF2000E5F737F9C6
:10D9900070BD11483030704770B504000D0045204F
:10D9A00000F0D8FE02898021131D9C4202D8A11AE2
:10D9B00029700021FF300130007B1A04120CC007CF
:10D9C00007D0521C1004000C844202D10520002113
:10D9D0002870080070BD0000140C0200F0FF000069
:10D9E0007C0C020070B515000E0002241000E5F753
:10D9F000A4FA002810D1452000F0ACFE040001215B
:10DA00002800E5F765FA31002000FFF7A2FF0021AA
:10DA10002800E5F75DFA0024200070BDFFB581B055
:10DA200000266846067008880D0017006946FFF753
:10DA3000B3FF04007348049906233A00E5F7C6F8DB
:10DA40002988002C018005D169460978052907D06D
:10DA5000032446800471E5F7D2F8002005B0F0BD3C
:10DA600002214180F6E7FFB50C0081B00020694635
:10DA700008700498050A2088FFF78EFF070013D16D
:10DA8000452000F067FEE1790600A079090208430D
:10DA900069460978052902D0022932D003E000281E
:10DAA00028D001280ED080275648039A04990423D1
:10DAB000801EE5F78BF8218801808770E5F79FF8D5
:10DAC0000020CBE77019FF300130C17A01221143E9
:10DAD000C1722900300000F05BFE01004A48039A41
:10DAE0000223E5F773F87119FF3101310570C97A26
:10DAF00041701CE07019FF300130C17A49084900BB
:10DB0000E6E72900300000F043FE01003E48039A9A
:10DB10008223401CE5F75AF8A2880600A11DFAF7F7
:10DB2000AFFE300080304570217901703000E5F79C
:10DB300066F8B9E7FFB50F0083B0002069460870AA
:10DB40000698000A01903888FFF726FF0500002498
:10DB5000452000F0FFFD0600002D06D16846007844
:10DB6000042810D0052810D080252648059A06994B
:10DB7000A31D001FE5F72AF83988002D01800571E3
:10DB8000448004D017E08024EFE70224EDE76946E3
:10DB90000978042902D0052903D00CE0B17A41713B
:10DBA00009E001997118FF310131C97ACA07D20F12
:10DBB0004271120A8271E5F722F8002007B0F0BD29
:10DBC00070B5087815000C00122811D11E0A4520E6
:10DBD00000F0C0FD310000F0DBFD01000A48012328
:10DBE0002A00401EE4F7F2FF61780170E5F707F8BC
:10DBF0002800E5F7A2F9410849002800E5F768F98F
:10DC0000002070BD180C000003450000FFB50500A2
:10DC10000020C04385B00E0004901F000121442065
:10DC2000E4F7BCFE0400286138001E210840A98AE0
:10DC3000F44A00230093029201910390F2490923D0
:10DC4000300004AAF4F70BFB009030882081308864
:10DC5000093030800098002830D10E984078012893
:10DC600011D1208907210022801C0004000C8902A8
:10DC7000F4F7B2FC208907210022801D0004000C6B
:10DC80008902F4F7A9FC208930800E984178402061
:10DC90000155F80701D00120C003079908432080EF
:10DCA000A88A002160804720E8820120E881D748C7
:10DCB0003C34AC606860A88AE5F70AF9009809B0BE
:10DCC000F0BD70B5056904006868002801D0E4F76C
:10DCD000EBFE002020612800E4F7E6FE70BD00693D
:10DCE000002243182033490008185A77C28770472A
:10DCF0000069002243182033490008185A77C28768
:10DD0000704710B5C24C0100A0691022401CA061F0
:10DD1000000100190E30891CFAF7B2FD01202077AE
:10DD200010BD70B50D00B74904005831B9A0FEF719
:10DD300004FDB7492804000CC88000228C804A6189
:10DD40008A6101224A7770BDF8B5B14F8524380049
:10DD50004169A40203003A7F806909191E33040156
:10DD600000258908012A02D0022A0CD009E0A84E19
:10DD700022000020FEF7CEF87069B56100197061CD
:10DD80003D770020F8BDA24E22000020FEF7C2F829
:10DD90007069B561001900247061A0A0FEF7CDFC88
:10DDA000641C0A2CF9DB0A203D77FEF783FCFEE7B2
:10DDB000974800210222417702779D4801700800B0
:10DDC00070477CB50C008F4906008C3191A0FEF79E
:10DDD000B4FC472000F0BEFC0500694695A0FEF7A4
:10DDE000ACFCA18868460170090A4170A179817074
:10DDF000E088010A6846C170E1890171090A417130
:10DE00000021280000F0BCFC0200300208300104B0
:10DE1000C120090C12230001E4F7D8FE002817D016
:10DE2000122101702989891C818041800A21C180C9
:10DE30006946098801816946498841812189818132
:10DE40006189C181694689880182E4F7D8FE7CBD79
:10DE50007CA0FEF772FCFBE7F8B506000C0047203B
:10DE600000F078FC05006946200A0C70487000211B
:10DE7000280000F085FC0200300208300104C120B7
:10DE8000090C0A230001E4F7A1FE1221017029897F
:10DE9000891D81800221C180694609880181E4F7DA
:10DEA000AEFEF8BDF7B55749140078318EB059A0D1
:10DEB000FEF743FC60792179000201436846018343
:10DEC000E079A5790002054368464583627A207AA5
:10DED000E37A12021043A27A1B021A431604064385
:10DEE0000796E07BA77B00020743684647843C0017
:10DEF00060A0FEF722FC290063A0FEF71EFC3100A3
:10DF000066A0FEF71AFC210069A0FEF716FC6E4918
:10DF100007986E4D01260027884230D16CA06E70A4
:10DF2000FEF70BFC6F491022002009ABFEF729F821
:10DF30006846418E6CA0FEF700FC0B9970A0FEF7BE
:10DF4000FCFB6846018D73A0FEF7F7FB6846408B2B
:10DF5000810875A0A980FEF7F0FB6846018D008B53
:10DF6000814221D0A8881921890188421CD8002823
:10DF70001AD06846408E844216D12E701EE0594950
:10DF80001022002009AB6F70FDF7FBFF6846418E41
:10DF900055A0FEF7D2FB0B9959A0FEF7CEFB6846C1
:10DFA000018D5CA0FEF7C9FB2878012806D00E98E9
:10DFB00009A9FFF706FF002011B0F0BD1C486F80D3
:10DFC00006700C2168462F7001800E214180FF21D0
:10DFD0002D318780C18000F044FD0E980021FFF7AD
:10DFE0003BFFE8E7F3B548780F78384D0C000002A6
:10DFF000074389B003D16878012801D09EE0E3E0AF
:10E00000A0E00000840C0200C0FF0000540D0200DC
:10E01000D809400025730D0A00000000776169747B
:10E0200020666F722072657365742121210D0A00CC
:10E03000350040006E6F746920203D2030782578CF
:10E040000D0A00004B455F4D53475F414C4C4F4319
:10E050005F44594E2047415454435F53454E445FFB
:10E060004556545F434D4420203D3D204E554C4C79
:10E07000200D0A0072784864722E766572203D2069
:10E080002578200D0A00000072784864722E6C65B5
:10E090006E203D202578200D0A000000727848642B
:10E0A000722E756964203D202578200D0A0000003D
:10E0B00072784864722E726F6D5F766572203D20B3
:10E0C0002578200D0A0000004242424244084000E8
:10E0D0006170702070617274207570677261646520
:10E0E0000D0A0000046C0000496D674864722E72CE
:10E0F0006F6D5F766572203D202578200D0A000047
:10E10000496D674864722E756964203D202578202A
:10E110000D0A0000496D674864722E766572203DD5
:10E12000202578200D0A00006F6164426C6B546FEB
:10E1300074203D202578200D0A00000038A0FEF74D
:10E14000FCFA35E03E491022002001ABFDF719FF33
:10E15000E079A679617C00020643207C090208432D
:10E160000690E17AA07A627B09020843217B1202C1
:10E17000114309040143721C684602810020E880B3
:10E1800030A0FEF7DAFA0096AB886A88002130A04A
:10E19000FEF7D3FA6846018932003AA0FEF7CDFABD
:10E1A0006888002804D16846418A0698814202D0D6
:10E1B00003200BB0F0BDA888810030001039FFF7B4
:10E1C000B0FD2000FFF79DFD6988B94217D10029F5
:10E1D00011D0E888401CE8802000FFF792FDA88855
:10E1E000E988401E814206D12DA0FEF7A6FA698873
:10E1F0000998FFF731FE6888401C688002E00998A2
:10E20000FFF72AFE6888A988884204D128A0FEF773
:10E2100094FAFFF7CDFD0020CBE7294870470000B6
:10E220006F6164496D67426C6F636B5772697465A7
:10E230003A20554E4B4E4F574E205549440D0A003B
:10E24000046C0000756964203D2025780D0A0000EB
:10E25000626C6B4E756D203D202578202C6F6164BB
:10E26000426C6B4E756D2025782C6F6164426C6B2F
:10E27000546F742025782C766572202578200D0A3D
:10E2800000000000496D674864722E766572203D7B
:10E290002025782C20766572203D2025780D0A00F7
:10E2A0006C61737420626C6F636B200D0A00000058
:10E2B00075706461746520646F776E210D0A0000CB
:10E2C000CC0C0200F8B50C00A0491E001700A0A05D
:10E2D000FEF733FA3800E4F730FE472000F03AFA50
:10E2E00005002078012804D8EEF7ACFA9A49884254
:10E2F00012D19A4802233A003100E4F767FC2178F2
:10E3000001702178012901D9402100E08921417063
:10E31000E4F775FC0020F8BDA17823782A003D328F
:10E3200099542278A1880C3C52005219D1870120BF
:10E3300000216C6040356970F8BD10B588A0FEF70B
:10E34000EBF9022010BD814910B5183180A0FEF70D
:10E35000F4F9022010BDFFB5002081B00700009045
:10E3600003981D000C001E0AE4F7E7FD002805D005
:10E370000398E4F7E2FD012871D074E0472000F033
:10E38000E9F900280CD0E279A17912021143402268
:10E39000125CD2072AD0002906D0012904D025E03A
:10E3A00077A0FEF7CAF9FBE7028923889446D21CBE
:10E3B00093420ED1012906D0811920314A7F52089B
:10E3C00052004A7712E0811920314A7F01231A4313
:10E3D000F7E76246D21D934208D12A0A520001296A
:10E3E00019D01118CA8F52085200CA870189228891
:10E3F0008B1C9A4214D10A3019210600FAF75AFAF6
:10E40000A288A11D3000FAF73BFAA1883200002053
:10E41000FFF748FD15E01118CA8F01231A43E4E7FE
:10E42000891D8A420DD1233019210600FAF742FADC
:10E43000A288A11D3000FAF723FA31000020FFF76F
:10E44000D1FD5448039A04232900E4F7BFFB218837
:10E45000018000998170E4F7D2FB04E0FFE74EA051
:10E46000FEF76BF90227380005B0F0BDFFB50026B6
:10E470003700472085B000F06DF905000024142115
:10E480006846FAF717FA0798E4F757FD002805D011
:10E490000798E4F752FD01284ED051E00698018814
:10E4A0002889C21C914204D10224220029003D3156
:10E4B00016E0C21D914204D10224220029003E31FF
:10E4C0000EE0821C914204D11924220029000A3155
:10E4D00006E0821D914207D1192422002900233130
:10E4E0006846FAF7CDF911E0021D914203D10D24DF
:10E4F00022002CA105E00830814206D10A24220026
:10E500002CA16846FAF7BCF900E006262148079AD4
:10E510000899A31D801EE4F759FB050044802200E2
:10E52000401D6946FAF7ACF9069800882880280053
:10E530002E71E4F764FB03E021A0FEF7FEF802274A
:10E54000380009B0F0BD0020704700005C0D0200EB
:10E550002573200D0A000000FFFF000001470000A6
:10E560006F6164735F666663315F7570645F726567
:10E57000715F68616E646C6572200D0A00000000B6
:10E580006F6164735F656E76203D3D206E756C6CC7
:10E590000D0A0000160C00004F4144535F425553D2
:10E5A000590D0A00496D67204964656E7469667982
:10E5B00000000000496D6720426C6F636B00000033
:10E5C0006F616473204F4144535F42555359200D8E
:10E5D0000A000000010009060020090E10B51429E8
:10E5E0000BD024290CD0452904D0472901D1FFF7AD
:10E5F00014FE10BDFFF7CDF910BDFEF7D0FF10BD22
:10E60000FEF758FD10BDF8B57F4E0025FF27002806
:10E6100019D00024182060438719F88AFFF7DAFF21
:10E62000002802D0416838008847FF20F8827D60CA
:10E63000BD60FD81387DE4F794FC641C2406240E43
:10E640000A2CE7D3F8BD00242000182148432200FB
:10E6500081190B320D618A82CF824D608D60CD8130
:10E660008D813550087DE4F7F7FB641C2406240EE9
:10E670000A2CE9D3F8BDF3B505004088002681B027
:10E68000FFF7A8FF01000AD06A885F4F0020182317
:10E690004343DB19DB8A934203D142262AE040261A
:10E6A00028E0401C0006000E0A28F0D300241820A1
:10E6B0006043C019C08AFF2807D0641C2406240EBA
:10E6C0000A2CF4D30A2C14D014E02800083000904F
:10E6D000182060430E68C01907006B78AA88A91D2E
:10E6E000B0470600EED16888F882B98A02980180A6
:10E6F000E8E74B263000FEBDF8B5434E0700002486
:10E70000182060438519E88AFFF764FF002803D0CA
:10E710008268390028009047641C2406240E0A2CC5
:10E72000EED3F8BDF3B5384E0F00002481B01820A9
:10E7300060438519E88AFFF74DFF002804D0C368BD
:10E740003A00019928009847641C2406240E0A2CDC
:10E75000EDD3FEBD03002C4A002010B501001824A3
:10E760004C43A418E48A9C4204D1182041438818E1
:10E77000006910BD491C0906090E0A29EFD310BD16
:10E7800042885004400CD20B01D009020843704764
:10E7900002885004400CD20B01D009020843704794
:10E7A00030B5020A0406184BFF21240E002018255C
:10E7B0004543ED18AD8AA54204D118214843C0183D
:10E7C000C18A04E0401C0006000E0A28EFD31002A4
:10E7D000084330BD30B5020A04060B4BFF21240E5E
:10E7E000002018254543ED18ED8AA54204D11821D3
:10E7F0004843C018818A04E0401C0006000E0A2825
:10E80000EFD31002084330BD980A40000A79027025
:10E810004A7942700B8883701B0AC3708A7902712F
:10E8200049884171090A817170470A880270120A89
:10E8300042708A788270CA78C2700A7902714A7905
:10E8400042718979817107207047437802781B02F1
:10E850001A430A8082788A70C278CA7002790A7173
:10E8600042794A71807988710720704770B5B34842
:10E870002821FAF71FF8B2490520E4F7EDFA002144
:10E880000520E4F725FBAD4B3521103B0722C902DB
:10E890000020FDF776FBA948AA4910380278A74C5A
:10E8A000AA2A05D0062002006071A01DC91D0CE037
:10E8B000002283185B788D18521C062AEB71F8DB56
:10E8C0000D20020060719F49A01DF9F7D9FF0025B6
:10E8D000F9F7C4FF61196D1C2D062D0E102D087659
:10E8E000F6D300F0CFF970BD10B5944C0020E1785C
:10E8F000042908D088009249103108588047E078F0
:10E90000401CE070012010BD8C4810B580780223B7
:10E91000052201028C480A31E4F758F901210170FF
:10E9200013214170E4F76BF910BDF0B58548834EB3
:10E93000401E01780025103E00298BB013D03521F0
:10E94000057033000722C9020020FDF71AFB30785A
:10E95000AA2808D17B490020321852780B18401C95
:10E960000628DA71F8DB0520E4F7E7FA022859D126
:10E970007548522305220921F738E4F727F90400E6
:10E98000457007202072A021A180E1800D20207019
:10E9900001211F202B2261721055022020730420B8
:10E9A00061730620A073032025000C35E072E81C7B
:10E9B000042266A1F9F764FFE07A001D0106090E42
:10E9C0001D20401A07063F0EE172022F00911FD949
:10E9D0003078AA2828D05B4906263200C91D05A830
:10E9E000F9F74EFFBE4200D237000099781C485517
:10E9F000E27A200009210D301154E17A401C3A00DE
:10EA0000081805A9F9F73CFFE07ABF1CC019E072AD
:10EA10002000E4F7F4F84F48FDF74CFE03210520F1
:10EA2000E4F756FA0BB0F0BD0D264649320005A8B2
:10EA3000D6E710B50520E4F780FA032810D10221AB
:10EA40000520E4F745FA4448012305220921E4F7AB
:10EA5000BDF802210170E4F7D2F8404901200870A6
:10EA600010BD10B5040035480E2380780522010240
:10EA700035480A310A30E4F7A9F80B2101702188E2
:10EA8000418061888180A188C180E1880181344909
:10EA900041818181E4F7B3F810BDFFB507001D0087
:10EAA0000E00052081B0E4F748FA03281ED11F2E7E
:10EAB0001CD81F2D1AD828484323052209210B30C2
:10EAC000E4F784F8040010202070212066700555BA
:10EAD00032003900A01CF9F7D3FE200003992A0068
:10EAE0002230F9F7CDFE2000E4F789F805B0F0BD3B
:10EAF00010B5124C6279A11DF9F7C2FE607910BD04
:10EB000030B50C00050089B020216846F9F7D2FE27
:10EB1000220029006846F9F7B3FE4F24E4021F22C1
:10EB200021000020FDF7E4F91F22210000206B46A0
:10EB3000FDF7F0F909B030BD70470000980B4000B8
:10EB4000900D02004D084000040E00000303F0FF8A
:10EB500000000000FF3F0000030D000032084000ED
:10EB6000FFFF0000254800210170642141707047BB
:10EB700010B523481C2305220921E4F727F81B219F
:10EB800001700021242241704280052282800122EE
:10EB9000C18002724272E4F732F810BD10B5040071
:10EBA000164804702420FFF715FE010009200423F5
:10EBB00005228002E4F70AF8002104704170322136
:10EBC0008170E4F71CF810BD10B504002420FFF795
:10EBD00001FE01000B4802230522E3F7F7FF0021A5
:10EBE00001704470E4F70BF810BD0020704700205E
:10EBF0007047002070470020704700005A0840000E
:10EC00001B0D000002240000F8B50E000978180062
:10EC1000002425000B00F9F796EE090609121518D5
:10EC20001B0C1E0F2000092421A516E00A2423A591
:10EC300013E0082424A510E0072426A50DE00A24EB
:10EC400026A50AE0052428A507E0052428A504E058
:10EC5000052429A501E0062429A501002A48A31CB2
:10EC6000E3F7B4FF07003078002C38707C7004D0D4
:10EC700022002900B81CF9F703FE3800E3F7BFFFB4
:10EC80000020F8BD704710B520480A23052209214D
:10EC9000E3F79CFF1B210170002114224170428088
:10ECA000052282801A4AC1800281E3F7A8FF10BDC5
:10ECB00042454B454E20534153000000424B2D42EC
:10ECC0004C452D312E300000123456FFFE9ABCDE2A
:10ECD00000000000025E044000000300312E302ED0
:10ECE000302E302D4C450000312E302E30000000EB
:10ECF000362E312E32000000362E332E300000002A
:10ED0000FFEEDDCCBBAA0000031400001B0D0000C9
:10ED1000FF0100002848002101704170704710B5C4
:10ED200026480A2305220921E3F750FF1B21017021
:10ED30000021452241704280052282800122C1804B
:10ED40004272E3F75CFF10BD70B506000D00452070
:10ED5000FFF740FD01001A4882230522E3F736FF42
:10ED6000040045702A003100801CF9F789FD20005D
:10ED7000E3F745FF70BD002070470020704700207A
:10ED8000704700200A0010B50E4B803204E00C5C86
:10ED90001C54401C0006000E14788442F7D80A491F
:10EDA0000020086010780949087000F0A9FE0020D2
:10EDB00010BD0020704700005C0840001B0D0000E3
:10EDC00001450000D00C400068084000A508400044
:10EDD000FEB515000C000179EB4E17E00768CA007C
:10EDE000083ABA1884CA00926A4601971288A24269
:10EDF00001D0B24207D1019E052229002000B04770
:10EE00000006000EFEBD491E0906090E0029E5D1C7
:10EE10000020FEBD10B5DD48012305220921E3F7DE
:10EE2000D5FE01210170E3F7EAFE002010BD10B508
:10EE300008780E2844D008DC01280DD0032838D0EB
:10EE40000C283DD00D2844D13AE00F2838D01028A6
:10EE500036D01B283DD127E04878002839D1CB484F
:10EE6000302305220921801CE3F7B0FE04000320B3
:10EE700020700A2060701B206084FF204930A0842D
:10EE80008320E0840120E076FF2020842000C04918
:10EE900010220A30F9F7F4FCBD4900201839C87077
:10EEA0002000E3F7ACFE14E0FFF71EFD00280AD0B7
:10EEB0000FE001210520E4F70BF8FFF715FD08E04E
:10EEC0004878452805D102210520E4F701F8FFF72D
:10EED0002CFD002010BD70B50C000978AD481E0057
:10EEE000002907D00025012911D002291AD00329B1
:10EEF00016D126E01C233100E3F768FE05002078D8
:10EF00002870281DFFF7F4FD6880280006E00A231A
:10EF10003100E3F75BFE217801704580E3F76FFE77
:10EF2000002070BD0A233100E3F750FE2178017004
:10EF3000082141800A2181804B21C900C5800181BF
:10EF4000ECE70A233100E3F741FE21780170857078
:10EF5000E4E710B518000C0001008E480223801C65
:10EF6000E3F734FE4821417021780170E3F747FE52
:10EF7000002010BDF8B5864C180A183C864E1700C4
:10EF80000025FF28A07023D009882C23052221808A
:10EF9000010280480A310938E3F718FE28210D5490
:10EFA000E3F72DFE2078FFF7F9FD04213800E3F7A1
:10EFB0008FFF784864220521F630E4F786F80120B7
:10EFC0000200707073480521F830E4F77EF802E023
:10EFD0007570FFF7AAFC0020F8BD0020704710B53F
:10EFE00002210520E3F774FF6C4901200870FFF748
:10EFF0009CFC002010BD10B51000E3F79EFF002020
:10F0000010BD00207047F8B5634C002560780028DB
:10F010000AD0A0686249401C8842A06005D9A5605A
:10F020006570FFF771FC00E0A560A0785D4E5E4F53
:10F03000002823D0E078401C0006000E0228E07073
:10F040001CD3E570A57021795848594B01705A4876
:10F05000257103C8574A00F037FA3178574800F055
:10F06000EDFC3178554A030A5354491C0906090E30
:10F070005054491C3170397000F0AEFD504A107880
:10F08000002810D04F487D230188DB00491C09046B
:10F09000090C9942018006D305800020157000F00C
:10F0A000F6FC00F0E7FC2078002823D06079401CB3
:10F0B0000006000E0F2860711CD365713978424834
:10F0C00014290BD3A17940181421FFF73DFE38789D
:10F0D00014383870A0791430A0710BE0A279801830
:10F0E000FFF732FE0F2060713048A5712570057062
:10F0F00035703D70274801220521F830E3F7E5FF20
:10F100000020F8BD10B50A000100040A0020242CDC
:10F1100012D007DC0C2C0CD00E2C0AD0142C08D1E9
:10F120002A4804E0452C05D0472C02D12848FFF797
:10F130004FFE10BD2748FAE72748F8E71CB5142111
:10F140006846018028214180002181804B21C9002F
:10F15000C180FFF786FC00201CBD00207047002006
:10F160007047002070471900E12010B50623000108
:10F17000E3F72CFD04498180418001210170E3F710
:10F180003EFD002010BD0000FFFF0000020D00004A
:10F19000B00B40000B0E0000600840003208400039
:10F1A000B80B00008E084000A60840008F08400001
:10F1B0007E0840006E08400090084000C00B4000F0
:10F1C000A1084000A8084000EE0C4000E00D02003D
:10F1D000D00E0200100E0200D00D020031480021B6
:10F1E0000170704710B530480A2305220921E3F762
:10F1F000EDFC1B2101700021472241704280052255
:10F2000082800122C1804272E3F7F9FC10BD10B583
:10F210000400244804704720FFF7DCFA010047206F
:10F22000062305220002E3F7D1FC0021047041808F
:10F230008180E3F7E4FC10BD002070470020704798
:10F2400010B548788A1C01000020FEF72BFE002034
:10F2500010BD0020704710B54720FFF7BBFA010032
:10F2600012481B230522E3F7B1FC142141706421ED
:10F270008170E3F7C4FC10BD10B54720FFF7AAFA70
:10F2800001000A481B230522001DE3F79FFC1421FF
:10F29000417032218170E3F7B2FC10BD002070474D
:10F2A000002070476D0840001B0D0000044700005F
:10F2B000F3B5002485B08D006E4628198100FE4804
:10F2C0004058694600F0ECFA0020A100059A0301BD
:10F2D0009A1887005358F759401C7B400428535014
:10F2E000F4DB641C042CE8DB07B0F0BD3FB5002361
:10F2F0006A469C0005595B1C042B1551F9DB8B07F2
:10F3000015D0CB179B0F5B189B089B00C91A0023D5
:10F310008C0014599D00491C4451CC17A40F64184B
:10F32000A408A400091B5B1C042BF1DB3FBD0021DA
:10F33000EDE7F0B58DB0070000206C4604AD08AED7
:10F340008100CA191369401C6350136A04286B506A
:10F35000126B7250F4DB01212000FFF7C7FF02217E
:10F3600004A8FFF7C3FF032108A8FFF7BFFF002091
:10F3700081006358CA1913616B58401C136271589D
:10F3800004281163F4DB0DB0F0BDF1B50025009841
:10F39000002429010E18A700F05900F091FA641C0E
:10F3A000042CF051F7DB6D1C042DF0DBF8BD70B5BB
:10F3B0000200012815D0022A15D0032A17D0092AE5
:10F3C0001AD00B2A1CD00D2A1FD00E2808D10D00F0
:10F3D000080000F08AFA0400280000F07CFA60407F
:10F3E00070BD080070BD080000F075FA70BD0C001B
:10F3F000080000F070FA0CE0080000F080FA70BD20
:10F400000D00080000F07BFAE5E70C00080000F0B2
:10F410006CFA604070BDF0B5A74C002389B09D0028
:10F4200029180A784E788F78C978120636043F0278
:10F4300032433A430A435B1C042B6251EFDB042541
:10F4400000200090A8070CD09B49AA0050188038D3
:10F45000036FC06F43408B506D1C2C2DF2DB09B045
:10F46000F0BD9549A8000790401880380099069093
:10F47000C06F059101A900F013FA012101A8FFF75F
:10F4800035FF002401AEA700F05900F019FA641C02
:10F49000042CF051F7DB019802060298010403984E
:10F4A0000A43030204981A430243059883498000E3
:10F4B000095881485140069A126F5140079A81506D
:10F4C0000098401C0090C7E7F0B50400002095B0FC
:10F4D000139020780D0001070DD00607360F811B11
:10F4E00010312170010002E0361A6E54491C267852
:10F4F0008E42F9DC0AE0102101E02954401C2678F4
:10F5000010368642F9DC2078103020700020295C0B
:10F510001E5C71402954401C1028F8DB1000FFF7D6
:10F520007AFF20780026109040E0A819694600F084
:10F5300033FA00216846FFF7BBFE01276846FFF754
:10F5400024FF6846FFF7F5FE684600F0DEF9390053
:10F550006846FFF7ADFE7F1C0A2FEFDB6846FFF71A
:10F5600014FF6846FFF7E5FE0A216846FFF7A0FE94
:10F57000514F6846603FB91900F07FF91098103874
:10F580000006000E109010D0139810300006000EE8
:10F5900001001031139006E03B18203B2A5C1B7CD5
:10F5A0005A402A54401C8842F6DB10362078B0427C
:10F5B000BBDC4349087015B0F0BD3FB500226B4677
:10F5C00094000559521C042A1D51F9DB8A0711D0F9
:10F5D000CA17920F521892089200891A0322511AE0
:10F5E0008C001C599500491E445100D20321521E23
:10F5F000F6D53FBD0021F1E7F0B58DB00700002042
:10F600006C4604AD08AE8100CA191369401C6350F2
:10F61000136A04286B50126B7250F4DB0121200036
:10F62000FFF7CBFF022104A8FFF7C7FF032108A8BB
:10F63000FFF7C3FF002081006358CA1913616B589C
:10F64000401C1362715804281163F4DB9BE6F1B58A
:10F65000002582B00298002429010E18A000009015
:10F660003758380000F028F9820116483907101879
:10F67000890E41580098641C042C3150EEDB6D1C3F
:10F68000042DE7DBFEBDF1B594B000216A46149C61
:10F690000B0100201D199C188300EE58401C042803
:10F6A000E650F9DB491C0429F1DB00241499200100
:10F6B00000251390401807E0200C4000D8160200E7
:10F6C0008E084000D81202001190D84913984618AD
:10F6D000A800694610900958D448139A8058FFF73B
:10F6E00066FE07001098694640181290016970681C
:10F6F000FFF75DFE47401298016AB068FFF757FEBA
:10F7000047401298016BF068FFF751FE474011998E
:10F7100010986D1C042D0F50DADB641C042CC5DB23
:10F7200049E7FFB5ADB02D99100009781691002179
:10F73000159101211791FFF76EFE00206EE01499DC
:10F740002E984018694600F027F90A216846FFF70D
:10F75000AFFD09246846FFF77AFF6846FFF74CFFC4
:10F760006846FFF790FF20001CA900F026F91CA8AE
:10F77000FFF789FF1CA80021EE46844600200A01FD
:10F780006346D51872448300D658EF58401C7E401B
:10F790000428D650F7DB491C0429EFDB641E012C3A
:10F7A000D8DA7046FFF753FF6846FFF725FF0021C0
:10F7B0006846FFF77DFD9E4C14982118684600F0BE
:10F7C0005CF89C48417810314170179800280AD0A5
:10F7D00000201790309A215C125C51402154401C4B
:10F7E0001028F7DB0DE015980100103107E02E9B83
:10F7F0000500103D225C5B5D5A402254401C88424B
:10F80000F5DB169810380006000E169004D01598F7
:10F8100010300006000E15901498103014902D989A
:10F820000178149881428ADC8248814A41785218D2
:10F83000203AD27F102A04D001D2891A417031B007
:10F84000F0BD1039FAE7102203E00378401C0B707A
:10F85000491C1300521E1206120E002BF5D17047E0
:10F86000102203E00378401C0B70491C1300521E49
:10F870001206120E002BF5D1704770B500231C0044
:10F880000022A50016013618765D521CCE545B1C72
:10F890001B061B0E042AF5DB641C042CF0DB70BD78
:10F8A000020E0A600202120E4A600204120E0006E4
:10F8B000000E8A60C8607047F02108400011704750
:10F8C00010B50400FFF7F8FF5B4A8001210780189C
:10F8D000890E405810BD4000FF210131084203D07D
:10F8E0000006000E1B214840704770B5050000F06F
:10F8F00096F80400280000F08CF8604070BD10B548
:10F90000040000F08CF8604010BDF1B594B0002107
:10F910006A46149C0B0100201D199C188300EE58A8
:10F92000401C0428E650F9DB491C0429F1DB0024C3
:10F9300014992001139040183C4911901398002508
:10F9400040314618A8006946109009583748139A64
:10F9500040308058FFF72BFD07001098694640188B
:10F96000129001697068FFF722FD47401298016A02
:10F97000B068FFF71CFD47401298016BF068FFF775
:10F9800016FD4740119910986D1C042D0F50D9DBBE
:10F99000641C042CCCDB0EE6F0B50024230000220E
:10F9A0009D001701065D7F18521C641C042A7E51BD
:10F9B000F7DB5B1C042BF2DBF0BDF0B51C4D0C003B
:10F9C0000601203591B0A8596946FFF769FF7519FE
:10F9D000686804A9FFF764FFA86808A9FFF760FF3B
:10F9E000E8680CA9FFF75CFF00206B4604AD08AF88
:10F9F00082009E5801016650AE5809194E60BE58EB
:10FA0000401C8E600CAEB2580428CA60F0DB11B006
:10FA1000F0BD10B5FFF75FFFFFF75DFF10BD10B53C
:10FA2000FFF7F7FFFFF757FF10BD000000170200B8
:10FA3000000C40008E084000D80E020030B50300D4
:10FA40000A480B4C0FE01A781202504000225B1C4F
:10FA5000050402D54000604000E040000004000CB6
:10FA6000521C082AF4DB491EEDD230BDFFFF000016
:10FA700021100000844900200881487088700870B7
:10FA8000C8700871814908708149087070478149C0
:10FA9000BB220A700A001E3A53784B70D2788A70E3
:10FAA000C870AA20087170477A4900B51E390878D5
:10FAB000AA2820D17448427989182039C97FBB29E6
:10FAC00019D1744902791E394978002A0DD0914222
:10FAD00011D1704AC1781E3AD278002908D0521E3E
:10FAE0008A4208D1491CC17003E00171C171F0E77D
:10FAF000C270012000BD0020FFF7C9FF002000BD3B
:10FB0000F8B5FFF7D1FF0024002860D062485E4DB1
:10FB100004606879AA7801001218521F13061B0EA0
:10FB2000AB702D780022401FAC465C4D05E0B61846
:10FB300036796746D719521CEE55594E8242F6DB8C
:10FB4000B078514D984233D19B1E51481906090E89
:10FB50006C7001705148FFF771FF69797218203A93
:10FB6000517F927F0902114388421FD14F484D4B6C
:10FB700003C84D4AFFF7D5FD464A55201070AA200C
:10FB8000424950704A4F0978002003E03B5C161848
:10FB9000401CB3708842F9DB3E48891CFCF7DBFE51
:10FBA0000120FFF774FFFFF765FF0BE00220F8E785
:10FBB000984209D960464018401F2870012068709B
:10FBC000FFF765FF2C8104E000206C70E9E7FFF788
:10FBD00051FF2D484471F8BDF0B52B4C0021A079A0
:10FBE000E47901230A002B4F0500A4462EE0AA2445
:10FBF0007C54491C0906090E66467E54491C0906B8
:10FC0000090E7D54491C0906090E7B545B1C491CD6
:10FC10001B0609061B0E090E0F281FD30E241F4EAC
:10FC2000B65C521C12067E542600491C641E09064E
:10FC30002406120E090E240E002EF0D1BB267E548F
:10FC4000491C09060F38090E0006000E0028CED107
:10FC50000D488171174901200870F0BD0F4B07E076
:10FC60009C5C521C12067C54491C120E0906090E9B
:10FC70000400401E0006000E002CF1D1BB20785479
:10FC8000491C0906090EE3E7A00840008F08400060
:10FC90008E084000EE0C400068084000C00B400099
:10FCA000D00C40007E0840006E08400098084000DC
:10FCB000000C400060084000F0B506001FB40020B2
:10FCC00082B005004024019100901BE001992200C0
:10FCD0000F00300000F0F6F9049A059B801A994154
:10FCE00010D310001900220000F0DCF9361A8F4101
:10FCF0000197009F22000120002100F0D3F938185D
:10FD00004D4100902000641E0028DFDC019B00981C
:10FD10002900320007B0F0BDF0B50E00070030003A
:10FD20005840C00F87B00490480059004008490867
:10FD3000BC1A884105D2310038001E0017000B00A4
:10FD400002005800400810434CD0300D039040058D
:10FD50005900400D490D0590401A4028029072DA72
:10FD600018030121000B0905084301900498009233
:10FD7000002805D00199524200208841009201904C
:10FD8000029840210A1A0199009800F08BF90500A9
:10FD90000C006B4607CB00F0A6F9C019039A71411D
:10FDA0000E0D0023D71756401A007A40164344D050
:10FDB000049A002A2DD0029A012A039A15DC120512
:10FDC000C01A914101263605001C7141059ED20FD3
:10FDD000D207009301922A002300029600F0A3F9B3
:10FDE00007B0F0BD38003100FAE71605224A0F00CF
:10FDF000B218C01AB74101210905001C4F41001873
:10FE00007F41110018187941E30F18436D196441BF
:10FE100013E0E2076D0815436408C2071443039A10
:10FE200001261205C01A91413605001C7141CE070A
:10FE3000400830434908C01851412A00230000F00F
:10FE400065F9CDE7FFE7049801224000C117121AB7
:10FE5000002304988B41C4173100381AA141EEE702
:10FE600030B40124E407634030BC55E730B40124CA
:10FE7000E407614030BC4FE70000E0FFF0B51FB47D
:10FE800088B000240B990998A64648400999C00FEC
:10FE90004900490809910B99C00749004908009099
:10FEA0000B910999089808431CD00B990A980843AC
:10FEB00018D0099801244000420D4800410D0998CE
:10FEC00024050003000B204309900B980003000B4E
:10FED00020430B9050181C49002240181400019038
:10FEE000100005E0002001000DB0F0BD032801DA8C
:10FEF000030000E00323C11A9C460AAE0AE05F003B
:10FF000008ADED5B4F00F75B7D430027AA187C41ED
:10FF1000491C5B1E6145F2DD410004AB5A522104CD
:10FF2000120C0A43240C401C0828DFDB01980099BE
:10FF30000290704601910090059B049A07990698DB
:10FF400000F0F1F8D0E700000DFCFFFFF0B50C0069
:10FF50005C40E40F85B0E40703944C00002664087D
:10FF600059009446490802002243029621D0624675
:10FF70000A431ED06200570D4A000E032303550D9D
:10FF80002D49012402002405781B1B0B360B401859
:10FF900023432643614600901C00501AB44103D30A
:10FFA0000098401C009002E0009892185B410028E5
:10FFB00003DA0020010005B0F0BD00200121090591
:10FFC0000700864611E064461D00141BB54106D3A8
:10FFD0006546521BB341074374460C43A646CD0702
:10FFE00040084908284392185B4105000D43EAD1B7
:10FFF0001000184313D01900604650407140084368
:020000040002F8
:1000000006D06046101AB34106D20122002306E052
:1000100000220123DB0702E00122D24353100098A3
:1000200074460105381C6141029C039D0019694119
:1000300000F06CF8BFE70000FD0300004A00090370
:100040000123090B1B0519430A4B520D9A4210B5A7
:1000500002DA0020010010BD064B34339A4203DC63
:100060009A1A00F02FF810BD034BD21800F01AF8BE
:1000700010BD0000FF030000CDFBFFFF002910B5FD
:1000800004DB0124E40740428C412100002B04DB07
:100090001C000123DB075242A341994200D1904248
:1000A00010BD0000202A10B504DB0100203A914069
:1000B000002010BD914020239C1A0300E340194307
:1000C000904010BD202A10B504DB0800203AD04033
:1000D000002110BD0B00D340D0402024A21A914033
:1000E0000843190010BD202A10B506DBCB17080005
:1000F000203A1041C1170B4306E00B001341D040DA
:100100002024A21A91400843190010BD002B10B5FD
:1001100008DA0024401C614192185B411A4301D166
:100120004008400010BDF0B505001FB482B00C00BF
:1001300003D00800F8F7DEEB02E0F8F7DCEB203044
:100140000200009021002800FFF7ACFF049B059AF5
:1001500004000F0018431143084314D01800104343
:100160001BD0009840210A1A05991800FFF7AAFF32
:1001700005000E00009A05990498FFF793FF0843C5
:1001800005D0012004E02000390007B0F0BD0020B8
:10019000C11705430E432C43374300990E9863055E
:1001A000401A7905E40A00220C43FD0A0A3002D500
:1001B00000200100E9E7010510190C9C69410D9D23
:1001C00000196941FFF7A2FFDFE7000037B508001B
:1001D0001400064B21006A4600F0C4F80400002019
:1001E000694600F05FFC20003EBD0000A50A020049
:1001F000F0B51FB486B000210998089A030D024398
:1002000014D05148514A1818504305141198012828
:1002100010981AD0281A401C00264D4F4D4900282E
:1002200000960191049012DA444211E011980124E1
:10023000012849A301D11098C1430698119A8460FE
:100240000360C26041600BB0F0BD4042E4E70400CF
:10025000210500203F4A001C51410391029012E009
:10026000E00707D00199009832003B00FFF706FE37
:100270000191009032003B0010001900FFF7FEFDD5
:1002800006000F006410002CEAD10498039B00289C
:10029000029A0999089806DAFFF7F0FD019B009A87
:1002A000FFF7ECFD05E0FFF751FE019B009AFFF719
:1002B0004DFE2A4B04000E000022FFF7DFFE03D89C
:1002C0000020C043010007E0254B00222000310040
:1002D000FFF722FDFFF7B2FE102409E0002C0ADB35
:1002E0000A220023FFF7E8FC079B30321A55641EF0
:1002F00002000A43F2D1079B1122641C121B1C1935
:10030000119B012B03D0012308430ED10AE00843BF
:1003100004D0112010900020119077E71098151A42
:100320006D1E0BE01098824202DD00236D1C03E07D
:10033000824201DA00236D1E002BEED0069811993F
:100340008260C16030C07EE701FCFFFF104D0000FD
:10035000000014400000F03F300000000000F043B7
:100360000000E03FFFB597B0060000251DE22528FC
:1003700077D10024F8492700049400E00443761C58
:1003800032780120203A90400842F7D130782A286C
:100390000ED00222307801003039092916D804998C
:1003A0000A235943144330394018761C0490F1E76E
:1003B000189802C804910029189004DA012040031B
:1003C00004434842049002200443761C30782E28CF
:1003D00014D1042004437078761C2A2809D1189877
:1003E000761C80C8189009E00A214F43303FC71996
:1003F000761C3078010030390929F5D930786C281D
:1004000010D006DC4C281AD068280ED06A2817D1E4
:1004100004E0742813D07A2812D110E0012040059E
:1004200004430CE00121090501E0032109050C4307
:100430007178814203D1012000052418761C761CB6
:100440003078119066280BD013DC58287ED009DC58
:1004500000287CD04528F6D04628F4D047281AD169
:10046000AAE118E0632835D0642871D0652812D13C
:10047000A2E170286DD008DC6728F1D069287CD013
:100480006E280DD06F2806D1BDE073282ED07528B8
:1004900072D078285AD01A9A199990476D1C83E126
:1004A0006002400F022809D003280DD004281898B4
:1004B00001680DD00D60001D189075E11898EA17BD
:1004C00001680D604A60F6E7189801680D80F2E750
:1004D0000D70F0E718986A460178001D11721890A7
:1004E0000020507202A80090012005E0189802C870
:1004F00018900020C043009161070ED5002101E053
:100500000199491CB942019113DA8142F8DB019A41
:100510000099895C0029F3D10BE0002101E00199E9
:10052000491C81420191FADB019A0099895C0029FA
:10053000F5D1019904981A9B471A199A210038009D
:1005400000F09AFA0199401945180BE051E030E1AA
:1005500013E050E0009800990078491C1A9A009125
:10056000199990470198401E0190401CF2D121003A
:100570001A9B199A380014E139E00A2000210090F2
:1005800060020191410F022907D0189A01CA1892FE
:10059000C2170329944608D00BE01898C01DC10863
:1005A000C90005C91891944609E000040014C21757
:1005B0009446042903D100060016C1178C46002278
:1005C0009445614606DA0A000021404291418C467A
:1005D0002D2102E0210504D52B216A46117301214A
:1005E00003E0E10701D02021F7E7029157E00A205C
:1005F0000AE0102008E010200090002104200443AD
:100600000827019103E00820002101910090600279
:10061000410F022907D0189A01CA18920022032913
:10062000944608D009E01898C01DC108C90005C942
:100630001891944605E00004000C042901D100063D
:10064000000E00210291210729D51199702906D0A9
:10065000009A019B10214A401A4305D00EE0402128
:100660006A461173012108E06146014306D030213A
:100670006A4611731199517302210291009A019BEC
:1006800008214A401A430AD16146014301D161075A
:1006900005D530216A46117301217F1E02911199FF
:1006A000582904D02DA10E910DA90D910DE030A176
:1006B000F9E7019B009A6146FFF7FEFA0E9B8C4614
:1006C0009B5C0D9A521E0D92137061460143F0D14E
:1006D0000D9805A9081A20300190600703D5012064
:1006E0000004844300E001270198874201DD381AA5
:1006F00000E0002001990090411802980918049820
:10070000401A0490E00306D41A9B199A0498210019
:1007100000F0B2F94519002706E01A9A03A8C05D57
:10072000199990476D1C7F1C02988742F5DBE00306
:100730000CD51A9B199A0498210000F09DF94519CF
:1007400004E01A9A1999302090476D1C0099481EB0
:1007500000290090F5DC1EE0092801003031323319
:1007600034353637383961626364656600000000ED
:1007700030313233343536373839414243444546D7
:10078000000000000D980D990078491C1A9A0D91EF
:10079000199990476D1C0199481E00290190F1DCC0
:1007A0004DE100F059F94519761C3078002800D049
:1007B000DDE528001BB0F0BD600700D406271898BF
:1007C000C01DC108C90048680A680831C30FDB07AB
:1007D0001891190001D09CA108E0210501D59BA129
:1007E00004E0E10701D09AA100E09AA1430011982A
:1007F0005B08652810910CD006DC452809D04628F6
:100800001DD0472841D141E0662818D067283CD147
:100810003CE00021112F01DB112000E0781C019148
:10082000009008A911A8FFF7E3FC13990591002196
:10083000119A7F1C159212980197009150E00120A7
:10084000C00703900120019008A911A80097FFF7A5
:10085000CFFC139A149905920022119B00921298D2
:10086000059A15930029019201D0100002E0791C2D
:1008700040180190381A01D5019804E04042401E0A
:100880000090781C0190C01B029043E0012F00DA19
:1008900001270021112F01DD112000E03800019116
:1008A000009008A911A8FFF7A3FC13990591119ACC
:1008B0000021129815920091210701970CD40599F7
:1008C000B94201DB019900E00191012904DD159A8B
:1008D000491E515C302906D0B84201DA011D05DA03
:1008E0000121029115E00199491EEDE7002805DC80
:1008F0000099411800910199091A03E0019A411CDD
:10090000914200DD01910099401A401C02900120A3
:10091000C0070390200706D402990198814202DBA8
:100920000020C043029000206946C8770398012147
:1009300007AF0337C907884224D0022011902B202B
:100940001290039800280CDA404203902D20129058
:1009500007E003980A21F7F757FF30317F1E039015
:1009600039701199481E00291190F2DC0398002873
:10097000EFD11298791E0870307820210840453058
:10098000BF1E387006A8C01BC01D039010980078C9
:10099000002800D00120019941180298C0170918B9
:1009A000039809180498401A401E0490E00306D4E6
:1009B0001A9B199A0498210000F05EF845191098C6
:1009C0000078002803D01A9A199990476D1CE0030B
:1009D00024D51A9B199A0498210000F04DF8451966
:1009E0001CE00098002807DB00990598884203DD89
:1009F0001598405C199901E0199930201A9A90478E
:100A000000986D1C401C00900298401E0028029027
:100A100004D11A9A19992E2090476D1C0199481EED
:100A200000290190DDDC05E038781A9A19997F1CBD
:100A300090476D1C0399481E00290390F4DC1A9B13
:100A4000199A04982100ACE62D0000002B0000004C
:100A50002000000000000000F8B504001E00170090
:100A60000025880404D405E039002020B0476D1C1F
:100A7000641EF9D52800F8BDFFB581B004001E0042
:100A80000025C80301D5302700E02027880404D5BD
:100A900005E003993800B0476D1C641EF9D52800A5
:100AA00005B0F0BD0A68531C0B601070704761738D
:100AB000736572745F657272006173736572745FDF
:100AC000706172616D006173736572745F776172DA
:100AD0006E0064756D705F646174610000280002CF
:100AE000000000000328000200000000192A000294
