:020000040001F9
:10B0200018F09FE518F09FE518F09FE518F09FE5F0
:10B0300018F09FE518F09FE518F09FE518F09FE5E0
:10B04000A4B0010060B0010064B0010068B001006C
:10B050006CB0010074B0010070B0010078B0010064
:10B06000820000EA830000EA840000EA850000EA2A
:10B07000AA0000EA850000EAA00000EA600840009B
:10B080000C1600000C334000200000001C3A400069
:10B09000F00200002C334000F00600000C3D4000A0
:10B0A000F0020000DF00A0E300F021E130001FE526
:10B0B00030101FE5003081E00040A0E103D0A0E1A6
:10B0C00084219FE5030054E104208434FCFFFF3A0F
:10B0D000D700A0E300F021E15C001FE55C101FE554
:10B0E000003081E00040A0E103D0A0E158219FE5BD
:10B0F000030054E104208434FCFFFF3ADB00A0E3AA
:10B1000000F021E188001FE588101FE5003081E094
:10B110000040A0E103D0A0E12C219FE5030054E111
:10B1200004208434FCFFFF3AD200A0E300F021E1C8
:10B13000AC001FE5AC101FE5003081E00040A0E14D
:10B1400003D0A0E104219FE5030054E104208434EE
:10B15000FCFFFF3AD100A0E300F021E1C8001FE5A9
:10B16000C8101FE5003081E00040A0E103D0A0E15D
:10B17000DC209FE5030054E104208434FCFFFF3A07
:10B180000080A0E30090A0E300A0A0E300B0A0E353
:10B1900000C0A0E3D300A0E300F021E110011FE50F
:10B1A00010111FE5003081E00040A0E103D0A0E1D4
:10B1B000A0209FE5030054E104208434FCFFFF3A03
:10B1C0000E0000EB170000EB0000A0E30010A0E36E
:10B1D0000020A0E30030A0E30040A0E30050A0E383
:10B1E0000060A0E30070A0E30080A0E30090A0E373
:10B1F00000A0A0E300B0A0E300C0A0E3250000EAA7
:10B2000054009FE554109FE554209FE50130A0E1D4
:10B21000023083E0030051E1044090340440813463
:10B22000FBFFFF3A1EFF2FE138009FE538109FE536
:10B23000003081E00040A0E10020A0E3030054E1E1
:10B2400004208434FCFFFF3A1EFF2FE1AAAAAAAA19
:10B25000CCCCCCCCDDDDDDDDBBBBBBBBFC0302005D
:10B260000008400060000000600840000C1600006C
:10B2700004F01FE5BD22000004F01FE5BF2200001E
:10B2800004F01FE5C122000004F01FE5C322000006
:10B2900004F01FE5C522000004F01FE50DB5010014
:10B2A000000000000000000000000000000000009E
:10B2B000000000000000000000000000000000008E
:10B2C000000000000000000000000000000000007E
:10B2D000000000000000000000000000000000006E
:10B2E000000000000000000000000000000000005E
:10B2F000000000000000000000000000000000004E
:10B300000F502DE9620400FA0F50BDE804F05EE230
:10B31000000000000000000000000000000000002D
:10B320000F502DE9370400FB0F50BDE804F05EE23A
:10B3300008B500920B000200944995A001F0F1F9C4
:10B3400008BD1CB501930B009049009202000B311F
:10B3500098A001F0E6F91CBD1CB501930B008B49C8
:10B3600000920200183193A001F0DBF91CBD0B0024
:10B370008649020010B524319BA001F0D2F910BD1E
:10B3800010B504000100A4A001F0CBF9FDF7B6EA66
:10B39000FDF7BEEA01F06EFAA348844206D0A34846
:10B3A000844203D00A2001F079F9FEE710BD1CB5F4
:10B3B0009F49062200206B4600F0D7FD68460078C2
:10B3C000FF2813D168464078FF280FD1684680785F
:10B3D000FF280BD16846C078FF2807D1684600795E
:10B3E000FF2803D168464079FF2804D091480622FF
:10B3F0006946FDF745FA1CBD00200121C905886199
:10B40000704710B5112000F08EFE10BD0EB5002063
:10B4100000F03DFFFF20013000F072FB0121684683
:10B420000170172141700121C94381800021C18031
:10B43000814802900120C005416A02221143416205
:10B44000416A0722120391434162416A0212114389
:10B450004162684601F036F80EBD10B577484C21C0
:10B46000FDF728FA764975480160764941607649CA
:10B4700081607649C16076490161764941617649CA
:10B4800081617649C16176490162764941627649B6
:10B4900081627649C16276490163764941637649A2
:10B4A00081637649C163764941647649816410BD00
:10B4B0001CB50022009201920278552A02D003F0B6
:10B4C00073FC1CBDAA216A461170002143185B78E9
:10B4D0005418491C06296370F8DB13006A490722D7
:10B4E000002000F00BFD03F008FA68A001F019F944
:10B4F0000A2001F0D3F8FEE769496A4801606A4909
:10B5000041606A4981606A49C160704700F09AFEF3
:10B510000120FDF7ACF900F091FE00F07BFC01F09A
:10B5200099F8FFF7E9FF00F05EFFE120400201F02B
:10B530004DF9604801F010FA00F078FC3F48FFF741
:10B540008CFF01210020C905886100F070FAFFF727
:10B550002EFF594801680212114301600321416026
:10B56000FDF7E0E9FDF7E6E954A001F0DAF8564C02
:10B5700000F0BEFA200001F0A4F8F9E70100002075
:10B58000002901D0022900D146487047DAFF0100A6
:10B5900025732C636F6E646974696F6E2025732C3C
:10B5A00066696C652025732C6C696E65203D2025CD
:10B5B000640D0A0025732C706172616D30203D208E
:10B5C00025642C706172616D31203D2025642C66EC
:10B5D000696C65203D2025732C6C696E65203D20CB
:10B5E00025640D0A0000000025732C64617461203D
:10B5F0003D2025642C6C656E677468203D202564B1
:10B600002C66696C65203D2025732C6C696E652065
:10B610003D2025640D0A00006572726F72203D2086
:10B6200025780D0A00000000C3C3C3C3A5A5A5A5C6
:10B63000FC9F00002900400003B40100B801400055
:10B6400089E70100BDE70100EFE50100E1E6010047
:10B650000DE701005FE60100E9B60100B1BA0100A3
:10B6600001BB0100E7BC010081BD010055BD010027
:10B6700063BD010081B3010031B3010043B3010098
:10B68000E9C6010057C80100E0E301007772697460
:10B6900065206E6577206E616D65200D0A000000E3
:10B6A0008DC8010060084000CFC8010055C80100E6
:10B6B00071C80100B1B40100400080007374617270
:10B6C00074200D0A00000000FF3F000010B50020AC
:10B6D000F7F715F80020F2F794FC0020F9F713FEB5
:10B6E0000020FBF7EEFC10BD10B50120F7F707F8BE
:10B6F0000120F2F786FC0120F9F705FE0120FBF797
:10B70000E0FC10BD10B5E8F7EDF90020EBF708FDFF
:10B71000E8F7AEFA0020EEF7F5FEEEF77CFF10BD7D
:10B7200070B5FDF7ECE80500FDF7F2E80400012034
:10B73000C00781210904C861C869C00FFCD1C8696C
:10B740000A6A496A10180818FDF791F8EBF79CFD92
:10B750000120EBF7E5FCE8F7C5FA0120EEF7D2FE91
:10B76000E8F7C0F9002D01D1FDF7DCE8002C01D18C
:10B77000FDF7E0E870BDA1480068002801D0002076
:10B780007047012070479D4901200968002908D1B0
:10B790009A494969002904D19849896A002900D148
:10B7A000002070470822C270042282700B2242706F
:10B7B00000220270812000044268120ECA704268A2
:10B7C000120C8A704268120A4A704068087070470A
:10B7D000F8B58B4E8B4D81273F043C69002C7DD002
:10B7E000600716D5F078FF2806D0696AC2000420E9
:10B7F00090408143014369620420B86100F05CFA23
:10B80000F178FF2905D0686ACA0004219140884375
:10B810006862E00718D0F078FF2806D0696AC20095
:10B82000012090408143014369620120B86100F02A
:10B830007FFAF0F794FCF178FF2905D0686ACA0016
:10B840000121914088436862200616D5F078FF28D0
:10B8500006D0696AC200802090408143014369623A
:10B860008020B861F0F77BFCF178FF2905D0686A89
:10B87000CA00802191408843686220071FD5F07874
:10B88000FF2806D0696AC200082090408143014326
:10B8900069620820B861A00702D50220B86184431C
:10B8A0000020EDF787FB584800F00BFFF178FF29E7
:10B8B00005D0686ACA000821914088436862E005A3
:10B8C0001FD5B07EFF2806D0696AC20002209040D2
:10B8D000814301436962FF20013000E08DE0B861DF
:10B8E000A00702D50220B86184430120EDF762FB76
:10B8F000B17EFF2905D0686ACA00022191408843C1
:10B900006862A00716D5F078FF2806D0696AC200E1
:10B91000022090408143014369620220B861EDF743
:10B9200080FBF178FF2905D0686ACA0002219140A6
:10B9300088436862A00517D5B07EFF2806D0696AE3
:10B94000C20001209040814301436962012040020E
:10B95000B861F0F76EFCB17EFF2905D0686ACA00B5
:10B960000121914088436862600616D5F078FF286F
:10B9700006D0696AC2004020904081430143696259
:10B980004020B861EDF711FBF178FF2905D0686A16
:10B99000CA004021914088436862E00616D5F078DD
:10B9A000FF2806D0696AC2001020904081430143FD
:10B9B00069621020B861ECF765F8F178FF2905D0CD
:10B9C000686ACA001021914088436862A00600D4CA
:10B9D00003E7F178FF2906D06A6ACB00202098405F
:10B9E000824302436A622020B861FF29F0D06A6A6C
:10B9F000C900884082436A62EFE6F8BD64054000F2
:10BA00006401400040008100FF3F00000121C907A0
:10BA100081200004C161C169C90FFCD1006AFF2106
:10BA2000D531884201D3012070470020704710B5FE
:10BA3000DE4C002020606060A060E060E6F701FE60
:10BA40006B22DB49D2000020E6F70CFF0122D94926
:10BA500092020120E6F706FF5722D7491201022081
:10BA6000E6F700FF0322D54952020320E6F7FAFE6B
:10BA7000D34801F055F90220FFF780FD0100D14ABB
:10BA80000020FCF716FEFBF782FBFCF7E0FBFFF75C
:10BA90001DFEFFF737FEE7F705FC0020F0F7A9F9D8
:10BAA00001206073A0731020207302F0D3FE10BD3C
:10BAB00070B5FCF724EF0500FCF72AEF0400E6F769
:10BAC000D9FDFBF775FBFFF72BFE0120F0F791F98D
:10BAD000BB4800688047002D01D1FCF724EF002C03
:10BAE00001D1FCF728EF70BD10B5FFF75BFE10BD6C
:10BAF000AE4810B5807AC00701D1E6F79EFE10BDB2
:10BB000070B50600FCF7FAEE0500FCF702EFA74956
:10BB10000400488930434881AB494B78FF2B0BD058
:10BB2000AA4A516ADB00F0269E400007000F9840A9
:10BB3000B143000101435162002D01D1FCF7F2EE47
:10BB4000002C01D1FCF7F6EE70BDF8B5A0489E4E72
:10BB5000009071789D4C00270E25FF2905D0606A62
:10BB6000CA002900914088436062E6F7A3FD0028DF
:10BB70007ED071780127FF2908D0606ACB002A00A7
:10BB80009A40904302229A4010436062874A507B59
:10BB90000028EDD0508900286AD1FF2908D0606ABA
:10BBA000CB002900994088430421994008436062F2
:10BBB000907B002802D17D20C0010090FFF726FF76
:10BBC0000028FBD07948017B6846E7F719FB00287D
:10BBD0006ED07178FF2908D0606ACA0029009140B0
:10BBE00088430621914008436062FFF7C4FD0028A6
:10BBF00060D07178FF2908D0606ACA00290091409E
:10BC0000884308219140084360626848017B684688
:10BC1000F0F709FC00284BD07178FF2908D0606A42
:10BC2000CA002900914088430A219140084360627C
:10BC3000FCF7A5FD00283DD000F0CEFE002839D04D
:10BC40007178FF2907D0606AC9008D400C228A40B4
:10BC5000A843104360625F48C16B54481030416094
:10BC6000009D05605C48854207D3FF225A3200E000
:10BC70001EE05AA15BA0FFF75BFB2800142148439C
:10BC80004A49401E897BEEF71CF901204002FFF76C
:10BC900037FF4B48806A8047022007437078FF28AF
:10BCA00006D0616AC2000120904081430143616275
:10BCB0003800F8BD0027FBE7434810B54278FF2A5B
:10BCC00006D04249486AD30001229A409043486214
:10BCD0000120FFF715FFEEF714F9FCF743FD464886
:10BCE00000F0EFFC10BD70B50600FCF708EE050093
:10BCF000FCF70EEE2D4904004889B04348813249D3
:10BD00004B78FF2B0BD0314A516ADB00F0269E4066
:10BD10000007000F9840B143000101435162002D1C
:10BD200001D1FCF700EE002C01D1FCF704EE70BD50
:10BD30001E4810B5807AC0070BD0EEF7EFF802204E
:10BD4000E6F728FD0120FFF7CEFF01204002FFF7B4
:10BD5000CAFF10BD7D2110B54001C900FCF754FD9C
:10BD600010BD10B5FFF7F6FF1049086010BD0F4871
:10BD7000408970470D48407B70470C48807B704776
:10BD800010B504001448844204D31C4A13A11CA01B
:10BD9000FFF7CEFA054A5068011988088300C91ACE
:10BDA00051606101091B081810BD70477008400000
:10BDB000740B4000D80E4000E412400060184000B0
:10BDC00084014000350840006401400040008100CB
:10BDD00080BB00004000800040420F007277697015
:10BDE0002E630000736C6F745F636E74203C2031AF
:10BDF0003030303030300000FF3F0000870300005B
:10BE00006C706379636C6573203C20313030303066
:10BE1000303000000020044902007D23DB00401C7C
:10BE200004C19842FBDB7047004081008348052134
:10BE3000C903016000210172012149024160012111
:10BE40004172704770B57E4C0500A16000F0E0F8CB
:10BE500000F0D8F861687C20814368010843606085
:10BE600000F0E1F800F0E5F80128FBD0E46800F00C
:10BE7000D5F8200070BD70B5714C0500A160E2607E
:10BE800000F0C6F800F0BEF861687C2081436801CC
:10BE9000001D0843606000F0C6F800F0CAF80028F2
:10BEA000FBD100F0BBF870BD70B5654C0500A1601A
:10BEB00000F0AEF800F0A6F861687C2081436801CC
:10BEC00008300843606000F0AEF800F0B2F80028D7
:10BED000FBD100F0A3F870BD70B506008D180128E5
:10BEE0000BD84C0A640206E021003000FFF7DCFFAB
:10BEF000FF34FF340234AC42F6D370BDF8B51C00F9
:10BF000015000E00070001282ED84C49B80008582B
:10BF1000A84229D310E060782278E1780002024339
:10BF2000A078090600040843024331003800FFF7F7
:10BF3000A2FF241D2D1F761C042DECD2002D13D042
:10BF40000022D243002009E0C100FF238B409A4326
:10BF5000235C8B40401C1A430006000EA842F3D31A
:10BF600031003800FFF787FFF8BDF8B50700002063
:10BF70000E00C04331490090B80008581D0014005D
:10BF8000A04224D3012F22D80CE031003800FFF763
:10BF900059FF0090042228006946FCF771FC241F19
:10BFA0002D1D761C042CF0D2002C10D0310038004E
:10BFB000FFF748FF0090002007E00099C200D14041
:10BFC000401C0006000E29706D1CA042F5D3F8BD80
:10BFD00070B502001B4800290FD01B4E14780023B7
:10BFE000521C45086040C007800F305A64085B1C33
:10BFF0006840082BF5D3491EF0D170BD7047002072
:10C00000704770470E48A5210161C3214161704707
:10C010000E490B4801600E49016070470848002135
:10C020000160016070470648416801221143416088
:10C03000704703484068C007C00F70478C08400035
:10C0400000308000FFFF000000084000A9580000F9
:10C0500058A90000F7B502099700724AD25916682C
:10C060009646704A1432D25915680207120F0123FE
:10C0700094461C0008329440624693401A040129F9
:10C0800014D0002916D0032917D09E433443110041
:10C09000294305072D0F0120A840029B0006002B15
:10C0A00010D0012B12D0022B15D112E03343A34341
:10C0B0001C0004E033431C43E9E733431C432900DD
:10C0C0009143E6E722438243140004E0944304438F
:10C0D00001E0944384437046046052481430C059D0
:10C0E0000160FEBD0109020788004E49120F14319C
:10C0F000085800680004000ED040C007C00F704709
:10C1000002099300474A10B51432D4582268000738
:10C110000123000F8340002901D01A4300E09A4315
:10C12000226010BD704710B504000121FFF7E8FF41
:10C1300000212000FFF7E4FF10BD002802D039499C
:10C14000091F08607047384810B500218160491EFA
:10C1500001613648016882139143016034A000F008
:10C16000E0FA3048001F0068002800D0804710BD6A
:10C1700000B5002202212020FFF76CFF00220221DF
:10C180002020FFF767FF002202212020FFF762FF37
:10C19000002202212020FFF75DFF00220221202043
:10C1A000FFF758FF00BD20484038026821490A6067
:10C1B00082684A6002698A608269CA60026A0A61AA
:10C1C000426814310A60C2684A6042698A60C26982
:10C1D000CA60426A0A611849016041608160C160B9
:10C1E000016141618161C161016241627047114930
:10C1F0000D480A68403802604A6882608A680261B5
:10C20000CA688261096901620A4914310A68426098
:10C210004A68C2608A684261CA68C261096941624B
:10C22000704770470808400040658000400080006B
:10C23000310D0A0098084000FFFF0000614901200D
:10C240000870704760488169604A11438161C16824
:10C25000FF2212049143C160C168152212041143E8
:10C26000C1605B4A41048A63C26902239A43C26186
:10C2700000224A60FF22B2320A604A6B40231A430E
:10C280004A634106C163704752484078704751493C
:10C29000487070474C480021016041604E494F4A48
:10C2A00051620021C94301625A218162416A090435
:10C2B000090C4162416A4A4A114341620A2000F076
:10C2C00041FDFEE7434810B5012101703E48C269B7
:10C2D00080231A43C261FF23B13342041360C36950
:10C2E00002242343C361C3690B43C361C3690824A8
:10C2F0002343C361C36904242343C361516010BD58
:10C300003448017801290AD1002101702E4980208A
:10C31000C861FF21B231000401602D49816370477B
:10C320000120C105486070470120C005806B80076F
:10C3300001D501207047002070472349CA690223B4
:10C340009A43CA6100234904012809D0204A623275
:10C3500002280AD0032802D1042048600A607047EE
:10C360004B60FF20B230086070474B60F6E7C901B0
:10C3700001431A4A012040071061184880300269C1
:10C3800001231B059A43026102690F23DB019A43D3
:10C39000026101614169090D090541614169032299
:10C3A000120311434161FEE70C498031086148697D
:10C3B000000D0005486148690322120310434861DB
:10C3C000FEE7000036004000400080000010001032
:10C3D0005105000030084000083C20700014800027
:10C3E0000000323470473348416889088900416051
:10C3F0004168032211434160016802121143016048
:10C4000070472D482B4988607047F8B5294FBD68A3
:10C41000FFF776FF81200004016B10260904C90F85
:10C42000002911D0FA6B25498A604B680968D21A35
:10C43000FF23F5335A43224B891E59438A4203D2C4
:10C44000016BB14331430163A80603D520200443A7
:10C4500000F08EFAA80504D5012040020443FFF73E
:10C4600072FEA80703D50220044300F0D1F8680744
:10C4700003D50420044300F0CBF8280703D5082097
:10C48000044300F0C5F8E80602D5344300F0C0F8D4
:10C49000BC60F8BD70B5074DAC68FFF731FF2004F4
:10C4A00001D5FFF795F9E00701D000F0B1F8AC60D5
:10C4B00070BD000040008000FFFF000080084000C9
:10C4C0007102000030B5002861D00378052B5ED8DA
:10C4D000C188828891425AD8417809078A0F012180
:10C4E000012A05D0574A94680D009D40AC439460E2
:10C4F0000122D205536A04780D006400A540AB43C5
:10C5000053624378DB0608D5546A03780D005B005C
:10C510005B1C9D402C43546207E0536A04780D0075
:10C520006400641CA540AB435362C2888388120434
:10C53000D3180278D400444AA418A360136804787E
:10C540000F25A400A540AB4345782D072D0FA5402E
:10C550002B43136042783D4B94073D4A0BD5057839
:10C560008468AD005C5113680078052800D10D2067
:10C5700081400B430AE005780024AD005C5113684C
:10C580000078052800D10D2081408B43136030BD19
:10C59000052806D82C490A688300012098400243E8
:10C5A0000A60704705280AD88200012001009140E6
:10C5B000521C90400143244802688A43026070473D
:10C5C000052807D820490A6880000123401C8340C1
:10C5D0001A430A607047052807D81B490A6880007B
:10C5E0000123401C83409A430A607047052801D903
:10C5F000002070471449C0004018C0680004000CB7
:10C600007047052803D8114A002180001150704757
:10C61000F8B50D4E7568002401273800A040284267
:10C6200007D00A48A1004158002902D02006000E78
:10C630008847641C052CF0DB756070682840800614
:10C64000FAD1F8BD0065800000618000C00840009C
:10C65000400080007047094988607047074840687B
:10C660007047064908607047044810B5C068000666
:10C67000000E02D00220E6F78DF810BD00E0001099
:10C680000120C105C86116482D2149040160A5217A
:10C6900009040160134900204870704700220121FD
:10C6A000C905CA610E4908602D235B04C3180B60DD
:10C6B000A5231B04C01808600A48012102704170BC
:10C6C000704708494978012908D12D2149044218A9
:10C6D00003490A60A5221204801808607047000010
:10C6E0000060800032084000BF4ABE485178405C7C
:10C6F000491C51707047BD48C0680006000E704765
:10C70000010010B5B94A002007E09468E40204D59E
:10C71000D360401C0006000E491C0B78002BF4D19E
:10C7200010BD0FB410B5AF480299543003AA02F0FF
:10C73000E3FF0400AB485430FFF7E2FF402C02D97E
:10C74000ABA0FFF7DDFF200010BC08BC04B0184709
:10C750000020704710B5040086B01422A8A16846D6
:10C76000FCF78EF8220968469F49825C891C0A7092
:10C770002207120F805C487000208870080006B005
:10C7800010BD70B50500A3A0FFF7BAFF0424E000B8
:10C7900029000838C1400806000EFFF7DBFFFFF74D
:10C7A000AFFF641E2406240EF1D19BA0FFF7A8FF63
:10C7B00070BD7D2101B5C90003E00220401C884204
:10C7C000FCD30098421E0092F7D208BD012110B59B
:10C7D000C905CA6852085200CA60E1210902421A1A
:10C7E00088420AD004DC8D49401A06D0401A04E081
:10C7F000501A02D08A49C84201D0892000E0102096
:10C8000001027A481B31016086494160C221016101
:10C8100000218161844AC26184480268844B1A40C5
:10C8200002600368032212041343036003681412B6
:10C83000234303604368934343606A484030816008
:10C84000C1607C4801682022114301607A48E5F705
:10C8500027FD10BD704710B5644800E0C1688168CD
:10C860008902C90FFAD15F484021FCF723F810BDB7
:10C87000012070475D4881690122120491431143F0
:10C88000816181688903C90FFBD0704770B51D00B5
:10C8900014000E00002805D1FF228E3267A169A086
:10C8A000FEF746FD002E05D1FF228F3263A169A05D
:10C8B000FEF73EFD002C05D1FF2290325FA168A05B
:10C8C000FEF736FD47484030C560846070BDF8B55E
:10C8D0001E0014000F00050005D1FF229C3257A155
:10C8E00058A0FEF725FD002F05D1FF229D3253A150
:10C8F00058A0FEF71DFD002C05D1FF229E324FA14E
:10C9000057A0FEF715FD37483A06403050C0120ECA
:10C910003649083805E08B68DB0202D52B78CB60FE
:10C920006D1C1300521E1206120E002BF3D1002CA8
:10C9300004D00021016041603000A047F8BD10B56F
:10C940002A4A06E00378401C9468A403E40FFBD055
:10C95000D360491EF6D210BD002801D02249C8601C
:10C9600070472148C168002901D00021C16070478B
:10C97000F8B51E4C666960691B4D8007C00F002723
:10C98000002807D160694006C00F03D16069000626
:10C99000C00F19D0134BA06880020AD5E168A868BF
:10C9A0001A18401CA8601170A8684028F3D1AF6025
:10C9B000F1E701202870EA68002A04D0A86801067F
:10C9C0000848090E9047AF6061693006000E090AF9
:10C9D000090201436161F8BD044880688003C00F0B
:10C9E00070470000D4084000340840000063800015
:10C9F000627566662066756C6C200D0A000000008A
:10CA00003031323334353637383941424344454684
:10CA100000000000307800000D0A000080250000B2
:10CA200000B2F3FF011000000100700000658000FB
:10CA3000FCFFFCFF4000800023C701007561727499
:10CA40002E63000062756670747220213D204E5581
:10CA50004C4C000073697A6520213D2030000000B5
:10CA600063616C6C6261636B20213D204E554C4CC0
:10CA70000000000070470020704781210904086B06
:10CA800007221043086370474008763800060016F6
:10CA900070470068704701607047B8494A6B5200A0
:10CAA0005208C00702434A63704710B5B44C0023D4
:10CAB00005E022000221491C9142FCDB5B1C834201
:10CAC000F7DB10BDF8B5AF4C20690121090508431B
:10CAD000206120690F21C9010843206121690120DB
:10CAE0004004814321612069C009C001206160695F
:10CAF00001210903084360610A20FFF7D6FF61693D
:10CB000001204003014361610A20FFF7CEFF9E4DE3
:10CB10004021E8689B4F8843803FE860F8600A2026
:10CB2000FFF7C3FFE86880210843E860F8600A2047
:10CB3000FFF7BBFF606901210904084360616420BD
:10CB4000FFF7B3FF8F4840388068C000C10C7D20DC
:10CB50004002FBF759FE8B4EC005403631688B4AC8
:10CB6000114031603168C00B014331606420FFF730
:10CB70009CFF61690120000381436161616940009C
:10CB800081436161E86880218843E860F8600A2099
:10CB9000FFF78BFFE86840210843E860F8606169AF
:10CBA0000120000481436161206901214904084397
:10CBB0002061216901200005814321613068012144
:10CBC000084330606420FFF770FFC820FFF76DFF57
:10CBD00020692861606968612068A861E068E8618F
:10CBE000F06A2862F8BD70B56649694D80390D60FC
:10CBF000684A4A60684B8B60684CCC606848086142
:10CC000068484861684888616848C861684808623F
:10CC100068484862684888626848C862684808632B
:10CC2000002048638863C863574920C11CC1554927
:10CC3000644A40390A60644A4A600F2292028A605C
:10CC4000C8600122D2040A6148618861C8615F4AF4
:10CC50000A6248628862C862086348638863C8637E
:10CC60005B4A48490A604B2252064A600F22D206AC
:10CC70008A601A04CA60574A0A61012252054A6151
:10CC8000554A8A61554ACA61554A0A62554A4A62FA
:10CC9000554A8A628122D200CA62544A0A63544ABF
:10CCA0004A638863C8633749524A40310A60486022
:10CCB0008860C860086148618861C861086248622C
:10CCC0002522D2038A624C4ACA624C4A0A634863EC
:10CCD0008863C8632B4801210906803001604849F8
:10CCE0004160484981604849C160484901614849FB
:10CCF0004161484981614849C161484901624849E7
:10CD00004162484981624849C162484901634849D2
:10CD10004163484981634916C163FFF7D3FE70BD83
:10CD200045490F22016245494162454941612C2133
:10CD30000A5444498162444901604449416044497C
:10CD4000C16150E7002104E00222521C0A2AFCDBE8
:10CD5000491C8142F8DB7047002104E00222521C8A
:10CD6000322AFCDB491C8142F8DB7047054839490F
:10CD70008038016338490163142096E64000810041
:10CD8000BC0C00008014800068094000FF00FEFF1A
:10CD90001032B0C400C2958200A0222F62A2622F7E
:10CDA000CB5E915F13522048000AFAE4C47F00AAC8
:10CDB0000580C007083C20706B78039C23BF670E7A
:10CDC00008D000803534080020008116FF010000E3
:10CDD000D6BE898E82001E000505841000C9080099
:10CDE00010100101004E103C4D38100E4D406A00ED
:10CDF00046C42C080100011048103436001CFF0105
:10CE0000020405070A0C0F12161A1E22262B3035B3
:10CE10003A40454B51575D636970767C83898F96A4
:10CE20009CA2A8AEB4BABFC5CACFD4D9DDE1E5E9AA
:10CE3000EDF0F3F5F8FAFBFD93CA010097CA010083
:10CE400077CA01007BCA010075CA01009BCA0100B4
:10CE500089CA01000850008008900080FFB50500D5
:10CE60008BB0149800270078401E012876D8012145
:10CE70002420E5F793FD04002421FBF71BFD149803
:10CE800000260078E07761E007206946087614986C
:10CE9000A17F80190700059040780822B040014327
:10CEA000A1771499F00041180019001D091DFBF726
:10CEB000E7FC7878012805D16946087E08210843F7
:10CEC00069460876E07F012805D96946087E102169
:10CED0000843694608760C9809A9028870000790F3
:10CEE0000A520E991E221140AB8A039109A94018DB
:10CEF000C34F002269468CC1C249052306AAF5F733
:10CF000098F807001CD1059A0799527809A8415A48
:10CF1000012A01D0012200E00022891A0C9A491D41
:10CF200011800599497801290AD107990923405AA6
:10CF30005B020022801C0004000C1900F5F74CFB7A
:10CF40000720761C36066946360E08761498007857
:10CF5000B04205D9002F97D004E0FFE7812706E013
:10CF6000002F07D0002C02D02000E5F79DFD3800EF
:10CF70000FB0F0BD68462C61808C0C99088020832E
:10CF80000E98C00702D00121C90300E000210D98CE
:10CF900001432180A88A002160802420E8820120AA
:10CFA000E88199481C34AC606860A88AE5F790FF76
:10CFB000DDE770B5056904006869002801D0E5F770
:10CFC00073FD002020612800E5F76EFD70BD00694B
:10CFD00000224018427770470069002240184277CB
:10CFE0007047F8B505000C00242001F0A7FBC37FB3
:10CFF00000210A00AB422FD9018B05270BE0867F69
:10D00000D640F607F617BE1B7118491E0904521CBC
:10D01000090C1206120EAA42F1D3032C01D20819F0
:10D0200016E0032C02D0042C08D014E0807FD040FE
:10D03000C00710D0C91C0904090C0DE0012B0AD946
:10D04000807FD040C007C0170422101A4018401E2D
:10D050000104090C00E000210800F8BD70B50C00C7
:10D0600015000600002101F07FFB02002102C12013
:10D07000092300010831E5F7A9FD04001220207002
:10D0800002212800FFF7ADFFA0800120E080701989
:10D09000807E20722000E5F7B2FD70BD5848283030
:10D0A0007047F8B5040016000D00242001F046FB7F
:10D0B000038B01008020002221E09F1CBC4201D88C
:10D0C000E01A15E08B7F3F043F0CD340DB0706D00E
:10D0D0007F1C3F043F0CBC4201D1032008E06346A3
:10D0E000012B08D97F1C3F043F0CBC4203D1042014
:10D0F00030700020F8BD7F1C3B041B0C521C2A70B2
:10D10000CF7F1206120EBA42BC46F3D29C42D4D252
:10D11000F8BDF8B5242001F011FB0400FF200090B9
:10D120006069092281889202914220D1027B01002C
:10D13000009202000E32964622001A32D71C951D2C
:10D140000C3194460FE00E7801239340F65D1E42A9
:10D1500007D07346D65C6346D35C9E4201D0097803
:10D1600018E0521C2A702A78022AECD31EE0274AC3
:10D1700091421BD1210002001D310C32CD1C8C4686
:10D1800011E017786346CE5C0123BB401E4208D0F5
:10D190003A06120E2000FFF761FF2878401C287025
:10D1A000F8BD491C297029780029EAD08188092214
:10D1B0009202002591420AD1C288018913480223B4
:10D1C000401EE5F703FD0099017045700AE00F4A23
:10D1D000914209D1C28801890C480123401CE5F71E
:10D1E000F5FC0570E5F70BFD6069E5F75DFC0021D6
:10D1F0002000656101F0B8FA0021E5F769FEF8BD8D
:10D20000080002000F180000700002000224000055
:10D21000FFB581B003981F000C000226E5F78DFED4
:10D2200000282FD1242001F089FA05002078012858
:10D2300004D8EFF707FB9C49884212D19B48039A18
:10D2400002233900E5F7C2FC217801702178012919
:10D2500001D9402100E089214170E5F7D0FC00268A
:10D2600010E0012603983100E5F732FE617822785C
:10D2700028001D3011540C3C6C61002020352870B2
:10D28000FFF747FF300005B0F0BDFFB581B0039850
:10D290001F000D000226E5F750FE002826D12420AD
:10D2A00001F04CFA04002978C07F814212D26878DC
:10D2B00064280FD822001A328854012603983100BE
:10D2C000E5F706FE0C3D6561002020342070FFF775
:10D2D00020FF0BE07548039A01233900801CE5F715
:10D2E00075FC81210170E5F78AFC00263000CAE751
:10D2F000FFB583B0002568460571057008881700E2
:10D300000E006A4601A9FFF7CCFE040068480699A2
:10D3100006233A00E5F75AFC3188002C018005D13C
:10D3200069460978032907D0032445800471E5F78D
:10D3300066FC002007B0F0BD02214180F6E7FFB592
:10D340000F0083B00020694608700871069801AA92
:10D35000040A3888FFF7A5FE060011D1242001F049
:10D36000EDF9F9790500B8790902084369460979A8
:10D37000032904D10121002810D0012816D08026CD
:10D380004B48059A06990423801EE5F71FFC39884F
:10D3900001808670E5F733FC0020CBE76B461B78F5
:10D3A0002819427F99408A43427706E06B461B78F2
:10D3B0002A19507F9940084350772100280001F036
:10D3C000DBF901003948059A0223C01CE5F7FEFB92
:10D3D00029190470497F4170E5F711FCD0E7FFB5CA
:10D3E00083B00020694608700871180A02900498FA
:10D3F0001C00008801AAFFF754FE06000025242027
:10D4000001F09CF90700002E08D168460079022837
:10D4100014D0032814D0042814D080262448059A58
:10D42000AB1D2100001FE5F7D1FB04000498002E7E
:10D43000018821802671658006D028E00125EDE76E
:10D440000225EBE70725E9E768460079022804D0C2
:10D45000032808D0042812D019E06846007838184C
:10D46000807E607113E00298694609783818407F21
:10D47000C840C107C90F6171090AA17107E0684678
:10D480000078C000C119601D091D01F0B3F920002A
:10D49000E5F7B5FB00204DE710B50878122801D15B
:10D4A000FFF737FE002010BDFFFF00000124000041
:10D4B000180C000030B503000120002103241A00DD
:10D4C000CA40D20704D04D0022006D1CAA40104370
:10D4D000491C0906090E0929F1D330BDFFB585B0F5
:10D4E0000E9F040038881D00FFF7E4FF0490280019
:10D4F0001E210840A18A4C4A002301910093029208
:10D5000003904A490698132304AAF4F792FD0600F3
:10D5100022D101212020E5F741FA206106990988EE
:10D52000018339884183E90701D00121C903079AA2
:10D5300011430180A18A41801421E1820121E1810E
:10D5400001001E31A1603A49001D6160E6F782F9D1
:10D55000A08A0021E5F7BCFC300009B0F0BD70B531
:10D56000046905006068002805D0201DE6F7CEF9A3
:10D57000E5F79AFAF6E7002028612000E5F794FA2B
:10D5800070BD7047704728489830704730B5040028
:10D59000228B648B0920521C13041B0C00222500D3
:10D5A000D540ED0707D05D1C8D4201D1100030BD84
:10D5B0009B1C1B041B0C521C1206120E092AEED3D4
:10D5C00030BD10B50300008B5B8B401C0004000CC9
:10D5D00000221C00D440E40708D0914203D1401C33
:10D5E0000004000C07E0801C0004000C521C120612
:10D5F0001216092AEDDB092A00D1002010BD020015
:10D600000020802901D98D207047062A06D0072ADC
:10D6100007D0082AF8D10729F5D170470829F2D197
:10D6200070470629EFD37047780002000A180000FF
:10D6300038010200FFB50C00142081B001F07EF823
:10D6400021780700092931D2FFF7BBFF00282BD032
:10D6500061782078FFF7D3FF060028D17D680DE0C0
:10D6600028792178884208D100222900381DE6F760
:10D670005EF92800E5F718FA02E02D68002DEFD1D9
:10D68000607801210830E5F789F905002078A11CB0
:10D690002871607868716278A81DFBF7F1F829009D
:10D6A000381DE6F7DFF802E0822600E081265348C5
:10D6B000039A04990223E5F789FA217801704670EC
:10D6C000E5F79DFA002005B0F0BDFFB5002081B060
:10D6D000009003980E00E5F730FC002802D00128E6
:10D6E0004CD04DE0142001F029F831880700FFF7F5
:10D6F0004DFF05004248092D36D27C6803E02179B0
:10D70000A94203D02468002CF9D117E0002C15D0D1
:10D710006379039A04999B1DE5F758FA0500308850
:10D72000A11D288000202871607968806279681DB9
:10D73000FBF7A6F82800E5F762FA21E03D770498A8
:10D74000010A3800797701F017F801002B48039A95
:10D750000123401CE5F73AFA0570E5F750FA039803
:10D760000121E5F7B5FB0BE0039A04990623E5F7E1
:10D770002DFA3188018080210171DCE702200090C0
:10D780000098A0E7F8B517000D001000E5F7D5FBED
:10D79000012831D1142000F0D1FF017F0400FFF7F0
:10D7A00010FF217F2A7806001548914214D1617F2D
:10D7B0006B783A00090208319B1DE5F707FA04006F
:10D7C0000680002020716878A91C60806A78601D3E
:10D7D000FBF756F8200009E0617F06233A000902B2
:10D7E0000831E5F7F3F9802106800171E5F707FAC2
:10D7F00000213800E5F76CFB0020F8BD01140000A3
:10D80000140C0000FFB50500FF2087B0109F1E001C
:10D8100001211130E5F7C2F8FF2104001131FBF7B7
:10D8200049F83F2168460175E01DF930027B7B789D
:10D830001A4302737878012801D168460175089867
:10D84000694600885E4A0023088230001E21084095
:10D85000A98A00930292019103905A49062305AACE
:10D8600004A8F4F7E6FB0028009007D0002C02D0B3
:10D870002000E5F719F900980BB0F0BD7878012881
:10D8800009D16846008A09214902001D0004000CE4
:10D890000022F4F7A1FE68462C61008A08990880EE
:10D8A0002081F00701D00120C0030999084320809E
:10D8B000A88A002160804520E8820120FF34E881A9
:10D8C00041480B34AC606860A88AE5F701FBD2E7F9
:10D8D00070B5056904006868002801D0E5F7E4F830
:10D8E000002020612800E5F7DFF870BD0069002204
:10D8F0004018FF300130C2727047006900224018A2
:10D90000FF300130C272704710B50400452000F0AE
:10D9100015FF0189052C03D208190004000C10BD65
:10D92000052C08D1FF300130007BC00703D0491D12
:10D930000804000C10BD002010BD70B50D000021C2
:10D9400000F012FF6B780200C120082100010833AB
:10D95000E5F73CF90400122020700420FFF7D4FF03
:10D96000A0806878A91CE08020006A780830FAF767
:10D9700087FF2000E5F743F970BD1148303070474C
:10D9800070B504000D00452000F0D8FE028980210A
:10D99000131D9C4202D8A11A29700021FF300130CA
:10D9A000007B1A04120CC00707D0521C1004000C94
:10D9B000844202D1052000212870080070BD0000BB
:10D9C00040010200F0FF0000A801020070B5150040
:10D9D0000E0002241000E5F7B0FA002810D145200F
:10D9E00000F0ACFE040001212800E5F771FA3100D7
:10D9F0002000FFF7A2FF00212800E5F769FA0024C4
:10DA0000200070BDFFB581B000266846067008880A
:10DA10000D0017006946FFF7B3FF0400734804992F
:10DA200006233A00E5F7D2F82988002C018005D1B9
:10DA300069460978052907D0032446800471E5F773
:10DA4000DEF8002005B0F0BD02214180F6E7FFB509
:10DA50000C0081B00020694608700498050A2088EF
:10DA6000FFF78EFF070013D1452000F067FEE17934
:10DA70000600A0790902084369460978052902D001
:10DA8000022932D003E0002828D001280ED08027B8
:10DA90005648039A04990423801EE5F797F82188D5
:10DAA00001808770E5F7ABF80020CBE77019FF30F5
:10DAB0000130C17A01221143C1722900300000F007
:10DAC0005BFE01004A48039A0223E5F77FF87119CB
:10DAD000FF3101310570C97A41701CE07019FF30C7
:10DAE0000130C17A49084900E6E72900300000F01A
:10DAF00043FE01003E48039A8223401CE5F766F886
:10DB0000A2880600A11DFAF7BBFE300080304570E8
:10DB1000217901703000E5F772F8B9E7FFB50F0021
:10DB200083B00020694608700698000A0190388882
:10DB3000FFF726FF05000024452000F0FFFD06004A
:10DB4000002D06D168460078042810D0052810D092
:10DB500080252648059A0699A31D001FE5F736F88B
:10DB60003988002D01800571448004D017E080249D
:10DB7000EFE70224EDE769460978042902D0052978
:10DB800003D00CE0B17A417109E001997118FF31BD
:10DB90000131C97ACA07D20F4271120A8271E5F7C0
:10DBA0002EF8002007B0F0BD70B5087815000C0005
:10DBB000122811D11E0A452000F0C0FD310000F0EE
:10DBC000DBFD01000A4801232A00401EE4F7FEFFA6
:10DBD00061780170E5F713F82800E5F7AEF9410820
:10DBE00049002800E5F774F9002070BD180C00000A
:10DBF00003450000FFB505000020C04385B00E00BE
:10DC000004901F0001214420E4F7C8FE04002861AD
:10DC100038001E210840A98AF44A0023009302928A
:10DC200001910390F2490923300004AAF4F717FB8D
:10DC3000009030882081308809303080009800289A
:10DC400030D10E984078012811D120890721002277
:10DC5000801C0004000C8902F4F7BEFC2089072117
:10DC60000022801D0004000C8902F4F7B5FC208915
:10DC700030800E98417840200155F80701D00120EE
:10DC8000C003079908432080A88A002160804720AC
:10DC9000E8820120E881D7483C34AC606860A88AFB
:10DCA000E5F716F9009809B0F0BD70B505690400F4
:10DCB0006868002801D0E4F7F7FE00202061280002
:10DCC000E4F7F2FE70BD00690022431820334900DA
:10DCD00008185A77C287704700690022431820331A
:10DCE000490008185A77C287704710B5C24C010026
:10DCF000A0691022401CA061000100190E30891C8F
:10DD0000FAF7BEFD0120207710BD70B50D00B749B0
:10DD100004005831B9A0FEF704FDB7492804000CEF
:10DD2000C88000228C804A618A6101224A7770BDD6
:10DD3000F8B5B14F852438004169A40203003A7F49
:10DD4000806909191E33040100258908012A02D0BF
:10DD5000022A0CD009E0A84E22000020FEF7CEF8DF
:10DD60007069B561001970613D770020F8BDA24E61
:10DD700022000020FEF7C2F87069B5610019002486
:10DD80007061A0A0FEF7CDFC641C0A2CF9DB0A2010
:10DD90003D77FEF783FCFEE797480021022241779A
:10DDA00002779D480170080070477CB50C008F49D0
:10DDB00006008C3191A0FEF7B4FC472000F0BEFCB9
:10DDC0000500694695A0FEF7ACFCA1886846017085
:10DDD000090A4170A1798170E088010A6846C17022
:10DDE000E1890171090A41710021280000F0BCFCA1
:10DDF0000200300208300104C120090C1223000186
:10DE0000E4F7E4FE002817D0122101702989891C4B
:10DE1000818041800A21C180694609880181694663
:10DE200049884181218981816189C18169468988C7
:10DE30000182E4F7E4FE7CBD7CA0FEF772FCFBE708
:10DE4000F8B506000C00472000F078FC0500694694
:10DE5000200A0C7048700021280000F085FC0200A8
:10DE6000300208300104C120090C0A230001E4F744
:10DE7000ADFE122101702989891D81800221C18096
:10DE8000694609880181E4F7BAFEF8BDF7B557493C
:10DE9000140078318EB059A0FEF743FC60792179E7
:10DEA0000002014368460183E079A5790002054339
:10DEB00068464583627A207AE37A12021043A27A96
:10DEC0001B021A43160406430796E07BA77B000259
:10DED0000743684647843C0060A0FEF722FC290007
:10DEE00063A0FEF71EFC310066A0FEF71AFC2100BD
:10DEF00069A0FEF716FC6E4907986E4D01260027B3
:10DF0000884230D16CA06E70FEF70BFC6F49102276
:10DF1000002009ABFEF729F86846418E6CA0FEF799
:10DF200000FC0B9970A0FEF7FCFB6846018D73A006
:10DF3000FEF7F7FB6846408B810875A0A980FEF7C5
:10DF4000F0FB6846018D008B814221D0A888192101
:10DF5000890188421CD800281AD06846408E844225
:10DF600016D12E701EE059491022002009AB6F70A7
:10DF7000FDF7FBFF6846418E55A0FEF7D2FB0B99DB
:10DF800059A0FEF7CEFB6846018D5CA0FEF7C9FBE9
:10DF90002878012806D00E9809A9FFF706FF00206F
:10DFA00011B0F0BD1C486F8006700C2168462F70C0
:10DFB00001800E214180FF212D318780C18000F03A
:10DFC00059FD0E980021FFF73BFFE8E7F3B54878CD
:10DFD0000F78384D0C000002074389B003D16878F0
:10DFE000012801D09EE0E3E0A0E00000B0010200C3
:10DFF000C0FF0000800202008C09400025730D0A5A
:10E00000000000007761697420666F72207265738A
:10E0100065742121210D0A00350040006E6F74697E
:10E0200020203D20307825780D0A00004B455F4DBB
:10E0300053475F414C4C4F435F44594E2047415436
:10E0400054435F53454E445F4556545F434D44200F
:10E05000203D3D204E554C4C200D0A0072784864FE
:10E06000722E766572203D202578200D0A00000072
:10E0700072784864722E6C656E203D202578200DE4
:10E080000A00000072784864722E756964203D2091
:10E090002578200D0A00000072784864722E726F95
:10E0A0006D5F766572203D202578200D0A00000006
:10E0B00042424242440840006170702070617274B4
:10E0C00020757067726164650D0A0000046C0000C1
:10E0D000496D674864722E726F6D5F766572203D80
:10E0E000202578200D0A0000496D674864722E755E
:10E0F0006964203D202578200D0A0000496D67489D
:10E1000064722E766572203D202578200D0A00006D
:10E110006F6164426C6B546F74203D202578200D34
:10E120000A00000038A0FEF7FCFA35E03E49102254
:10E13000002001ABFDF719FFE079A679617C0002B0
:10E140000643207C090208430690E17AA07A627BAC
:10E1500009020843217B1202114309040143721C86
:10E16000684602810020E88030A0FEF7DAFA0096C7
:10E17000AB886A88002130A0FEF7D3FA684601898F
:10E1800032003AA0FEF7CDFA6888002804D168462C
:10E19000418A0698814202D003200BB0F0BDA888C6
:10E1A000810030001039FFF7B0FD2000FFF79DFD22
:10E1B0006988B94217D1002911D0E888401CE8804D
:10E1C0002000FFF792FDA888E988401E814206D111
:10E1D0002DA0FEF7A6FA69880998FFF731FE688836
:10E1E000401C688002E00998FFF72AFE6888A98829
:10E1F000884204D128A0FEF794FAFFF7CDFD002055
:10E20000CBE72948704700006F6164496D67426C35
:10E210006F636B57726974653A20554E4B4E4F577A
:10E220004E205549440D0A00046C000075696420B5
:10E230003D2025780D0A0000626C6B4E756D203D07
:10E24000202578202C6F6164426C6B4E756D202503
:10E25000782C6F6164426C6B546F742025782C7637
:10E260006572202578200D0A00000000496D67487E
:10E2700064722E766572203D2025782C207665729A
:10E28000203D2025780D0A006C61737420626C6F4C
:10E29000636B200D0A000000757064617465206472
:10E2A0006F776E210D0A0000F8010200F8B50C002E
:10E2B000A0491E001700A0A0FEF733FA3800E4F7CB
:10E2C0003CFE472000F03AFA05002078012804D8E7
:10E2D000EEF7B8FA9A49884212D19A4802233A00D6
:10E2E0003100E4F773FC217801702178012901D90C
:10E2F000402100E089214170E4F781FC0020F8BD55
:10E30000A17823782A003D3299542278A1880C3CC8
:10E3100052005219D187012000216C60403569708C
:10E32000F8BD10B588A0FEF7EBF9022010BD8149B9
:10E3300010B5183180A0FEF7F4F9022010BDFFB52A
:10E34000002081B00700009003981D000C001E0AF9
:10E35000E4F7F3FD002805D00398E4F7EEFD01286B
:10E3600071D074E0472000F0E9F900280CD0E27980
:10E37000A179120211434022125CD2072AD000294F
:10E3800006D0012904D025E077A0FEF7CAF9FBE703
:10E39000028923889446D21C93420ED1012906D0CB
:10E3A000811920314A7F520852004A7712E08119C0
:10E3B00020314A7F01231A43F7E76246D21D934278
:10E3C00008D12A0A5200012919D01118CA8F5208FF
:10E3D0005200CA87018922888B1C9A4214D10A30C4
:10E3E00019210600FAF766FAA288A11D3000FAF793
:10E3F00047FAA18832000020FFF748FD15E0111808
:10E40000CA8F01231A43E4E7891D8A420DD12330C4
:10E4100019210600FAF74EFAA288A11D3000FAF77A
:10E420002FFA31000020FFF7D1FD5448039A04234E
:10E430002900E4F7CBFB2188018000998170E4F783
:10E44000DEFB04E0FFE74EA0FEF76BF90227380081
:10E4500005B0F0BDFFB500263700472085B000F0BD
:10E460006DF90500002414216846FAF723FA07988D
:10E47000E4F763FD002805D00798E4F75EFD012866
:10E480004ED051E0069801882889C21C914204D1DF
:10E490000224220029003D3116E0C21D914204D120
:10E4A0000224220029003E310EE0821C914204D158
:10E4B0001924220029000A3106E0821D914207D169
:10E4C00019242200290023316846FAF7D9F911E00E
:10E4D000021D914203D10D2422002CA105E0083039
:10E4E000814206D10A2422002CA16846FAF7C8F915
:10E4F00000E006262148079A0899A31D801EE4F72C
:10E5000065FB050044802200401D6946FAF7B8F912
:10E5100006980088288028002E71E4F770FB03E03D
:10E5200021A0FEF7FEF80227380009B0F0BD002058
:10E5300070470000880202002573200D0A000000C9
:10E54000FFFF0000014700006F6164735F66666350
:10E55000315F7570645F7265715F68616E646C6570
:10E5600072200D0A000000006F6164735F656E76B3
:10E57000203D3D206E756C6C0D0A0000160C0000ED
:10E580004F4144535F425553590D0A00496D67206E
:10E590004964656E7469667900000000496D672002
:10E5A000426C6F636B0000006F616473204F4144E5
:10E5B000535F42555359200D0A000000010009061F
:10E5C0000020090E10B514290BD024290CD04529A0
:10E5D00004D0472901D1FFF714FE10BDFFF7CDF994
:10E5E00010BDFEF7D0FF10BDFEF758FD10BDF8B509
:10E5F0007F4E0025FF27002819D0002418206043F3
:10E600008719F88AFFF7DAFF002802D0416838003E
:10E610008847FF20F8827D60BD60FD81387DE4F78A
:10E62000A0FC641C2406240E0A2CE7D3F8BD0024A9
:10E63000200018214843220081190B320D618A8283
:10E64000CF824D608D60CD818D813550087DE4F79E
:10E6500003FC641C2406240E0A2CE9D3F8BDF3B590
:10E6600005004088002681B0FFF7A8FF01000AD00E
:10E670006A885F4F002018234343DB19DB8A9342EB
:10E6800003D142262AE0402628E0401C0006000E66
:10E690000A28F0D3002418206043C019C08AFF283C
:10E6A00007D0641C2406240E0A2CF4D30A2C14D0A0
:10E6B00014E0280008300090182060430E68C0194C
:10E6C00007006B78AA88A91DB0470600EED16888BC
:10E6D000F882B98A02980180E8E74B263000FEBD37
:10E6E000F8B5434E07000024182060438519E88AD6
:10E6F000FFF764FF002803D08268390028009047A4
:10E70000641C2406240E0A2CEED3F8BDF3B5384E53
:10E710000F00002481B0182060438519E88AFFF7B4
:10E720004DFF002804D0C3683A000199280098479B
:10E73000641C2406240E0A2CEDD3FEBD03002C4AD3
:10E74000002010B5010018244C43A418E48A9C4210
:10E7500004D1182041438818006910BD491C0906DE
:10E76000090E0A29EFD310BD42885004400CD20B89
:10E7700001D009020843704702885004400CD20BB4
:10E7800001D009020843704730B5020A0406184B4D
:10E79000FF21240E002018254543ED18AD8AA5421F
:10E7A00004D118214843C018C18A04E0401C000667
:10E7B000000E0A28EFD31002084330BD30B5020A1C
:10E7C00004060B4BFF21240E002018254543ED18AD
:10E7D000ED8AA54204D118214843C018818A04E07B
:10E7E000401C0006000E0A28EFD31002084330BD7B
:10E7F0004C0A40000A7902704A7942700B88837093
:10E800001B0AC3708A79027149884171090A8171B2
:10E8100070470A880270120A42708A788270CA7839
:10E82000C2700A7902714A7942718979817107202F
:10E830007047437802781B021A430A8082788A70F4
:10E84000C278CA7002790A7142794A7180798871F6
:10E850000720704770B5BD482821FAF72BF8BC494E
:10E860000520E4F7F9FA00210520E4F731FBB74B66
:10E87000B849103B07220020FDF777FBB348B649A3
:10E8800010380278B14CAA2A08D006200200607124
:10E89000A01DC91DF9F7F4FFB0A00FE000228318F6
:10E8A0005B788D18521C062AEB71F8DB0D200200F4
:10E8B0006071A949A01DF9F7E3FFACA0FDF731FF96
:10E8C0000025F9F7CBFF61196D1C2D062D0E102DBB
:10E8D0000876F6D300F006FA70BD10B59B4C002008
:10E8E000E178042908D088009949103108588047F8
:10E8F000E078401CE070012010BD944810B580788D
:10E900000223052201029D480A31E4F75FF9012143
:10E91000017013214170E4F772F910BDF0B58E4813
:10E920008A4C401E01780025103C002987B020D079
:10E9300005708849230007220020FDF716FB217887
:10E94000AA2908D1844A002023185B781618401C95
:10E950000628F371F8DB8AA0FDF7E3FE20796179E0
:10E96000A2796B4607C3E378A278617887A0FDF7A8
:10E97000D8FE8BA0FDF7D5FE0520E4F7DEFA0228CD
:10E9800059D17E48522305220921F738E4F71EF9B0
:10E990000600457007203072A021B180F1800D2063
:10E9A000307001211F202B2271729055022030738C
:10E9B000042071730620B073032035000C35F0720B
:10E9C000E81C042279A1F9F75BFFF07A001D01062B
:10E9D000090E1D20401A07063F0EF172022F059105
:10E9E0001FD92078AA2828D05B4906242200C91DF7
:10E9F0006846F9F745FFBC4200D227000599781C0C
:10EA00004855F27A300009210D301154F17A401C3A
:10EA10003A0008186946F9F733FFF07ABF1CC019AD
:10EA2000F0723000E4F7EBF86248FDF737FE03219F
:10EA30000520E4F74DFA07B0F0BD0D244649220049
:10EA40006846D6E710B50520E4F777FA032810D119
:10EA500002210520E4F73CFA574801230522092149
:10EA6000E4F7B4F802210170E4F7C9F85349012032
:10EA7000087010BD10B5040034480E2380780522BC
:10EA800001023E480A310A30E4F7A0F80B21017078
:10EA90002188418061888180A188C180E1880181CD
:10EAA000474941818181E4F7AAF810BDFFB507000D
:10EAB0001D000E00052081B0E4F73FFA03281ED1A7
:10EAC0001F2E1CD81F2D1AD83B484323052209218D
:10EAD0000B30E4F77BF804001020207021206670D2
:10EAE000055532003900A01CF9F7CAFE2000039931
:10EAF0002A002230F9F7C4FE2000E4F780F805B0C0
:10EB0000F0BD10B5114C6279A11DF9F7B9FE60791D
:10EB100010BD30B50C00050089B020216846F9F71A
:10EB2000C9FE220029006846F9F7AAFE4F24E40234
:10EB30001F2221000020FDF7CFF91F222100002015
:10EB40006B46FDF7DBF909B030BD70474C0B400058
:10EB5000BC020200E0E301004D0840007265616400
:10EB6000206F6C64206E616D650D0A0072656164D2
:10EB7000206E6577206E616D650D0A00040E000041
:10EB8000526561643A253032780D0A0025632C25E0
:10EB9000632C25632C25632C25632C25630D0A002B
:10EBA0007374617274206164760D0A000303F0FFD0
:10EBB00000000000FF3F0000030D0000320840008D
:10EBC000FFFF00002548002101706421417070475B
:10EBD00010B523481C2305220921E3F7F7FF1B2169
:10EBE000017000212422417042800522828001228E
:10EBF000C18002724272E4F702F810BD10B5040041
:10EC0000164804702420FFF7D9FD010009200423D1
:10EC100005228002E3F7DAFF0021047041703221FF
:10EC20008170E3F7ECFF10BD10B504002420FFF75E
:10EC3000C5FD01000B4802230522E3F7C7FF0021B1
:10EC400001704470E3F7DBFF10BD00207047002027
:10EC50007047002070470020704700005A084000AD
:10EC60001B0D000002240000F8B50E000978180002
:10EC7000002425000B00F9F766EE090609121518A5
:10EC80001B0C1E0F2000092421A516E00A2423A531
:10EC900013E0082424A510E0072426A50DE00A248B
:10ECA00026A50AE0052428A507E0052428A504E0F8
:10ECB000052429A501E0062429A501002A48A31C52
:10ECC000E3F784FF07003078002C38707C7004D0A4
:10ECD00022002900B81CF9F7D3FD3800E3F78FFFB5
:10ECE0000020F8BD704710B520480A2305220921ED
:10ECF000E3F76CFF1B210170002114224170428058
:10ED0000052282801A4AC1800281E3F778FF10BD94
:10ED100042454B454E20534153000000424B2D428B
:10ED20004C452D312E300000123456FFFE9ABCDEC9
:10ED300000000000025E044000000300312E302E6F
:10ED4000302E302D4C450000312E302E300000008A
:10ED5000362E312E32000000362E332E30000000C9
:10ED6000FFEEDDCCBBAA0000031400001B0D000069
:10ED7000FF0100002548002101704170704710B567
:10ED800023480A2305220921E3F720FF1B210170F4
:10ED90000021452241704280052282800122C180EB
:10EDA0004272E3F72CFF10BD70B506000D00452040
:10EDB000FFF704FD0100174882230522E3F706FF51
:10EDC000040045702A003100801CF9F759FD20002D
:10EDD000E3F715FF70BD002070470020704700204A
:10EDE000704770B50D0000240E00803606E0295DE6
:10EDF00009A0FDF796FC641C2406240E3078A0427E
:10EE0000F5D8002070BD0020704700005C0840006D
:10EE10001B0D000001450000253032780000000085
:10EE2000FEB515000C000179AB4E17E00768CA006B
:10EE3000083ABA1884CA00926A4601971288A24218
:10EE400001D0B24207D1019E052229002000B0471F
:10EE50000006000EFEBD491E0906090E0029E5D177
:10EE60000020FEBD10B59D48012305220921E3F7CE
:10EE7000ADFE01210170E3F7C2FE002010BD10B508
:10EE800008780E2844D008DC01280DD0032838D09B
:10EE90000C283DD00D2844D13AE00F2838D0102856
:10EEA00036D01B283DD127E04878002839D18B483F
:10EEB000302305220921801CE3F788FE040003208B
:10EEC00020700A2060701B206084FF204930A084DD
:10EED0008320E0840120E076FF2020842000804908
:10EEE00010220A30F9F7CCFC7D4900201839C8708F
:10EEF0002000E3F784FE14E0FFF7EFFC00280AD0BF
:10EF00000FE001210520E3F7E3FFFFF7E6FC08E04F
:10EF10004878452805D102210520E3F7D9FFFFF7FE
:10EF2000FDFC002010BDF8B51E0017000C006DA000
:10EF3000FDF7F7FB21787048002907D0002501294B
:10EF400012D002291CD0032918D129E01C233A0031
:10EF50003100E3F73BFE050020782870281DFFF7FD
:10EF6000D0FD6880280007E00A233A003100E3F76B
:10EF70002DFE217801704580E3F741FE0020F8BDA9
:10EF80000A233A003100E3F721FE217801700821BD
:10EF900041800A2181804B21C900C5800181EBE7B6
:10EFA0000A233A003100E3F711FE217801708570E1
:10EFB000E2E710B518000C0001004F480223801C46
:10EFC000E3F704FE4821417021780170E3F717FE52
:10EFD000002010BD70B5424C180A183C1500FF28DF
:10EFE000A0701CD009882C230522218001024248F0
:10EFF0000A310938E3F7EAFD002228210A54E3F731
:10F00000FEFD2078FFF7FAFD04212800E3F760FFFA
:10F01000394864220521F630E4F757F801E0FFF79C
:10F020007DFC002070BD0020704710B50221052036
:10F03000E3F74EFF314901200870FFF76FFC002015
:10F0400010BD10B51000E3F778FF002010BD0020C0
:10F05000704730B40A000100040A0020242C11D0AB
:10F0600007DC0C2C10D00E2C0ED0142C0CD1244804
:10F0700004E0452C04D0472C06D1224830BCCFE612
:10F080002148FBE72148F9E730BC70471CB5142143
:10F090006846018028214180002181804B21C900E0
:10F0A000C180FFF7E7FC00201CBD00207047002056
:10F0B0007047002070471900E12010B506230001B9
:10F0C000E3F784FD04498180418001210170E3F769
:10F0D00096FD002010BD0000FFFF0000020D0000A3
:10F0E000640B4000636F6E6E6563742073756363B9
:10F0F0006565640D0A0000000B0E00003208400038
:10F100000C030200F40302003C030200FC020200B4
:10F11000314800210170704710B530480A2305229C
:10F120000921E3F753FD1B210170002147224170A3
:10F130004280052282800122C1804272E3F75FFD96
:10F1400010BD10B50400244804704720FFF736FBBB
:10F1500001004720062305220002E3F737FD0021C6
:10F16000047041808180E3F74AFD10BD00207047A4
:10F170000020704710B548788A1C01000020FEF777
:10F1800085FE002010BD0020704710B54720FFF716
:10F1900015FB010012481B230522E3F717FD14217C
:10F1A000417064218170E3F72AFD10BD10B547203E
:10F1B000FFF704FB01000A481B230522001DE3F7AB
:10F1C00005FD1421417032218170E3F718FD10BD57
:10F1D00000207047002070475F0840001B0D0000B2
:10F1E00004470000F0B506001FB4002082B00500FF
:10F1F0004024019100901BE0019922000F00300093
:10F2000000F0F6F9049A059B801A994110D310007A
:10F210001900220000F0DCF9361A8F410197009F97
:10F2200022000120002100F0D3F938184D41009050
:10F230002000641E0028DFDC019B009829003200BA
:10F2400007B0F0BDF0B50E00070030005840C00F09
:10F2500087B004904800590040084908BC1A88410A
:10F2600005D2310038001E0017000B0002005800C4
:10F27000400810434CD0300D039040055900400D1C
:10F28000490D0590401A4028029072DA18030121B6
:10F29000000B09050843019004980092002805D04E
:10F2A0000199524200208841009201900298402129
:10F2B0000A1A0199009800F08BF905000C006B46C2
:10F2C00007CB00F0A6F9C019039A71410E0D002377
:10F2D000D71756401A007A40164344D0049A002AA1
:10F2E0002DD0029A012A039A15DC1205C01A914109
:10F2F00001263605001C7141059ED20FD2070093EE
:10F3000001922A002300029600F0A3F907B0F0BD95
:10F3100038003100FAE71605224A0F00B218C01A69
:10F32000B74101210905001C4F4100187F41110020
:10F3300018187941E30F18436D19644113E0E2078F
:10F340006D0815436408C2071443039A0126120589
:10F35000C01A91413605001C7141CE074008304368
:10F360004908C01851412A00230000F065F9CDE793
:10F37000FFE7049801224000C117121A00230498E5
:10F380008B41C4173100381AA141EEE730B4012493
:10F39000E407634030BC55E730B40124E407614022
:10F3A00030BC4FE70000E0FFF0B51FB488B0002488
:10F3B0000B990998A64648400999C00F4900490889
:10F3C00009910B99C0074900490800900B910999D0
:10F3D000089808431CD00B990A98084318D009983C
:10F3E00001244000420D4800410D09982405000306
:10F3F000000B204309900B980003000B20430B9057
:10F4000050181C490022401814000190100005E01B
:10F41000002001000DB0F0BD032801DA030000E078
:10F420000323C11A9C460AAE0AE05F0008ADED5BFB
:10F430004F00F75B7D430027AA187C41491C5B1EE7
:10F440006145F2DD410004AB5A522104120C0A431B
:10F45000240C401C0828DFDB0198009902907046BC
:10F4600001910090059B049A0799069800F0F1F825
:10F47000D0E700000DFCFFFFF0B50C005C40E40F8E
:10F4800085B0E40703944C000026640859009446B4
:10F49000490802002243029621D062460A431ED048
:10F4A0006200570D4A000E032303550D2D49012418
:10F4B00002002405781B1B0B360B40182343264300
:10F4C000614600901C00501AB44103D30098401CC0
:10F4D000009002E0009892185B41002803DA0020B7
:10F4E000010005B0F0BD0020012109050700864696
:10F4F00011E064461D00141BB54106D36546521B3E
:10F50000B341074374460C43A646CD07400849085B
:10F51000284392185B4105000D43EAD110001843BF
:10F5200013D01900604650407140084306D0604631
:10F53000101AB34106D20122002306E00022012363
:10F54000DB0702E00122D243531000987446010504
:10F55000381C6141029C039D0019694100F06CF860
:10F56000BFE70000FD0300004A0009030123090B67
:10F570001B0519430A4B520D9A4210B502DA0020BE
:10F58000010010BD064B34339A4203DC9A1A00F096
:10F590002FF810BD034BD21800F01AF810BD000070
:10F5A000FF030000CDFBFFFF002910B504DB0124A1
:10F5B000E40740428C412100002B04DB1C000123A6
:10F5C000DB075242A341994200D1904210BD000096
:10F5D000202A10B504DB0100203A9140002010BD24
:10F5E000914020239C1A0300E3401943904010BD32
:10F5F000202A10B504DB0800203AD040002110BDBD
:10F600000B00D340D0402024A21A91400843190097
:10F6100010BD202A10B506DBCB170800203A104198
:10F62000C1170B4306E00B001341D0402024A21A5F
:10F6300091400843190010BD002B10B508DA0024D2
:10F64000401C614192185B411A4301D140084000BF
:10F6500010BDF0B505001FB482B00C0003D0080047
:10F66000F9F748E902E0F9F746E920300200009096
:10F6700021002800FFF7ACFF049B059A04000F004F
:10F6800018431143084314D0180010431BD00098AE
:10F6900040210A1A05991800FFF7AAFF05000E007D
:10F6A000009A05990498FFF793FF084305D00120BD
:10F6B00004E02000390007B0F0BD0020C117054369
:10F6C0000E432C43374300990E986305401A790581
:10F6D000E40A00220C43FD0A0A3002D50020010092
:10F6E000E9E7010510190C9C69410D9D001969415C
:10F6F000FFF7A2FFDFE7000037B508001400064B54
:10F7000021006A4600F0C4F804000020694600F0B9
:10F710005FFC20003EBD0000D1FF0100F0B51FB42A
:10F7200086B000210998089A030D024314D051486D
:10F73000514A1818504305141198012810981AD0EE
:10F74000281A401C00264D4F4D4900280096019173
:10F75000049012DA444211E011980124012849A3CF
:10F7600001D11098C1430698119A84600360C26069
:10F7700041600BB0F0BD4042E4E7040021050020E9
:10F780003F4A001C51410391029012E0E00707D06C
:10F790000199009832003B00FFF706FE01910090AE
:10F7A00032003B0010001900FFF7FEFD06000F00BD
:10F7B0006410002CEAD10498039B0028029A09994E
:10F7C000089806DAFFF7F0FD019B009AFFF7ECFDC1
:10F7D00005E0FFF751FE019B009AFFF74DFE2A4B13
:10F7E00004000E000022FFF7DFFE03D80020C04314
:10F7F000010007E0254B002220003100FFF722FD29
:10F80000FFF7B2FE102409E0002C0ADB0A220023D5
:10F81000FFF7E8FC079B30321A55641E02000A43CA
:10F82000F2D1079B1122641C121B1C19119B012B86
:10F8300003D0012308430ED10AE0084304D011206D
:10F8400010900020119077E71098151A6D1E0BE0AC
:10F850001098824202DD00236D1C03E0824201DA2F
:10F8600000236D1E002BEED0069811998260C160B6
:10F8700030C07EE701FCFFFF104D00000000144087
:10F880000000F03F300000000000F0430000E03FC7
:10F89000FFB597B0060000251DE2252877D100248A
:10F8A000F8492700049400E00443761C32780120D4
:10F8B000203A90400842F7D130782A280ED0022210
:10F8C000307801003039092916D804990A235943A0
:10F8D000144330394018761C0490F1E7189802C898
:10F8E00004910029189004DA01204003044348429F
:10F8F000049002200443761C30782E2814D1042072
:10F9000004437078761C2A2809D11898761C80C880
:10F91000189009E00A214F43303FC719761C307810
:10F92000010030390929F5D930786C2810D006DC6F
:10F930004C281AD068280ED06A2817D104E0742801
:10F9400013D07A2812D110E00120400504430CE0C6
:10F950000121090501E0032109050C437178814269
:10F9600003D1012000052418761C761C30781190F4
:10F9700066280BD013DC58287ED009DC00287CD008
:10F980004528F6D04628F4D047281AD1AAE118E035
:10F99000632835D0642871D0652812D1A2E170287F
:10F9A0006DD008DC6728F1D069287CD06E280DD096
:10F9B0006F2806D1BDE073282ED0752872D0782824
:10F9C0005AD01A9A199990476D1C83E16002400F32
:10F9D000022809D003280DD00428189801680DD0FA
:10F9E0000D60001D189075E11898EA1701680D6008
:10F9F0004A60F6E7189801680D80F2E70D70F0E7AD
:10FA000018986A460178001D1172189000205072F3
:10FA100002A80090012005E0189802C81890002064
:10FA2000C043009161070ED5002101E00199491CF6
:10FA3000B942019113DA8142F8DB019A0099895C9D
:10FA40000029F3D10BE0002101E00199491C81421A
:10FA50000191FADB019A0099895C0029F5D101999D
:10FA600004981A9B471A199A2100380000F09AFA54
:10FA70000199401945180BE051E030E113E050E0E6
:10FA8000009800990078491C1A9A0091199990479A
:10FA90000198401E0190401CF2D121001A9B199A36
:10FAA000380014E139E00A20002100906002019141
:10FAB000410F022907D0189A01CA1892C2170329C8
:10FAC000944608D00BE01898C01DC108C90005C9AC
:10FAD0001891944609E000040014C21794460429C2
:10FAE00003D100060016C1178C46002294456146DA
:10FAF00006DA0A000021404291418C462D2102E0A5
:10FB0000210504D52B216A461173012103E0E10789
:10FB100001D02021F7E7029157E00A200AE01020E7
:10FB200008E01020009000210420044308270191E0
:10FB300003E008200021019100906002410F02299A
:10FB400007D0189A01CA189200220329944608D0B7
:10FB500009E01898C01DC108C90005C9189194464C
:10FB600005E00004000C042901D10006000E00216C
:10FB70000291210729D51199702906D0009A019B7D
:10FB800010214A401A4305D00EE040216A46117305
:10FB9000012108E06146014306D030216A46117315
:10FBA0001199517302210291009A019B08214A4048
:10FBB0001A430AD16146014301D1610705D53021BD
:10FBC0006A46117301217F1E02911199582904D0B0
:10FBD0002DA10E910DA90D910DE030A1F9E7019B2A
:10FBE000009A6146FFF7FEFA0E9B8C469B5C0D9ACD
:10FBF000521E0D92137061460143F0D10D9805A974
:10FC0000081A20300190600703D5012000048443C6
:10FC100000E001270198874201DD381A00E000204A
:10FC2000019900904118029809180498401A04900C
:10FC3000E00306D41A9B199A0498210000F0B2F947
:10FC40004519002706E01A9A03A8C05D1999904744
:10FC50006D1C7F1C02988742F5DBE0030CD51A9BD4
:10FC6000199A0498210000F09DF9451904E01A9AA8
:10FC70001999302090476D1C0099481E002900906A
:10FC8000F5DC1EE0092801003031323334353637D7
:10FC900038396162636465660000000030313233D8
:10FCA0003435363738394142434445460000000078
:10FCB0000D980D990078491C1A9A0D911999904741
:10FCC0006D1C0199481E00290190F1DC4DE100F006
:10FCD00059F94519761C3078002800D0DDE5280058
:10FCE0001BB0F0BD600700D406271898C01DC108DE
:10FCF000C90048680A680831C30FDB07189119006A
:10FD000001D09CA108E0210501D59BA104E0E107F9
:10FD100001D09AA100E09AA1430011985B086528E0
:10FD200010910CD006DC452809D046281DD0472864
:10FD300041D141E0662818D067283CD13CE0002141
:10FD4000112F01DB112000E0781C0191009008A91F
:10FD500011A8FFF7E3FC139905910021119A7F1C6C
:10FD6000159212980197009150E00120C00703906E
:10FD70000120019008A911A80097FFF7CFFC139A62
:10FD8000149905920022119B00921298059A1593DE
:10FD90000029019201D0100002E0791C4018019066
:10FDA000381A01D5019804E04042401E0090781CAA
:10FDB0000190C01B029043E0012F00DA01270021CF
:10FDC000112F01DD112000E038000191009008A9F9
:10FDD00011A8FFF7A3FC13990591119A002112981D
:10FDE00015920091210701970CD40599B94201DBC6
:10FDF000019900E00191012904DD159A491E515C29
:10FE0000302906D0B84201DA011D05DA012102913C
:10FE100015E00199491EEDE7002805DC009941181D
:10FE200000910199091A03E0019A411C914200DDF9
:10FE300001910099401A401C02900120C0070390D4
:10FE4000200706D402990198814202DB0020C043BA
:10FE5000029000206946C8770398012107AF033755
:10FE6000C907884224D0022011902B2012900398B9
:10FE700000280CDA404203902D20129007E00398EE
:10FE80000A21F8F7C1FC30317F1E039039701199B7
:10FE9000481E00291190F2DC03980028EFD1129837
:10FEA000791E08703078202108404530BF1E387018
:10FEB00006A8C01BC01D039010980078002800D031
:10FEC0000120019941180298C017091803980918D0
:10FED0000498401A401E0490E00306D41A9B199A15
:10FEE0000498210000F05EF8451910980078002869
:10FEF00003D01A9A199990476D1CE00324D51A9BD8
:10FF0000199A0498210000F04DF845191CE000985A
:10FF1000002807DB00990598884203DD1598405CAE
:10FF2000199901E0199930201A9A904700986D1C90
:10FF3000401C00900298401E0028029004D11A9A9A
:10FF400019992E2090476D1C0199481E0029019097
:10FF5000DDDC05E038781A9A19997F1C90476D1CF2
:10FF60000399481E00290390F4DC1A9B199A0498FF
:10FF70002100ACE62D0000002B0000002000000056
:10FF800000000000F8B504001E00170000258804DA
:10FF900004D405E039002020B0476D1C641EF9D55B
:10FFA0002800F8BDFFB581B004001E000025C8037D
:10FFB00001D5302700E02027880404D505E0039907
:10FFC0003800B0476D1C641EF9D5280005B0F0BD9F
:10FFD0000A68531C0B60107070476173736572740C
:10FFE0005F657272006173736572745F70617261D4
:10FFF0006D006173736572745F7761726E00647512
:020000040002F8
:100000006D705F64617461000028000200000000F0
:100010000328000200000000192A000200800000EE
:100020000229000A000000000429000200800000EC
:100030005DCE0100B3CF0100CFCF0100D9CF0100C9
:100040000024000011D20100022400008BD2010024
:10005000170C0000F1D20100150C00003FD3010085
:10006000130C0000DFD30100000C000099D4010044
:10007000400002000600000000280002000000000E
:100080000328000200000000292A000200808000EE
:100090000328000200000000242A000200808000E3
:1000A0000328000200000000252A000200808000D2
:1000B0000328000200000000272A000200808000C0
:1000C0000328000200000000262A000200808000B1
:1000D0000328000200000000282A0002008080009F
:1000E0000328000200000000232A0002008008000C
:1000F00003280002000000002A2A000200800800F5
:100100000328000200000000502A000200800700BF
:10011000DDD401005FD5010083D5010085D5010044
:100120000014000035D60100130C0000CBD60100EE
:100130000314000085D70100200102000300000025
:100140000028000200000000032800020000000058
:10015000F2FF00040080800003280002000000007D
:10016000F1FF0004008080000229000A0000000066
:1001700005D80100D1D80100EDD80100FBD801005D
:1001800001450000CDD90100170C000005DA01007F
:10019000150C00004FDA0100130C00001DDB0100FC
:1001A000000C0000A9DB0100800102000500000036
:1001B00000280002000000000328000200000000E8
:1001C000C1FF000C10C014000229000A000000004A
:1001D0000129000200801400032800020000000032
:1001E000C2FF000C10C014000229000A0000000029
:1001F0000129000200801400F5DB0100ABDC0100E6
:10020000C7DC0100D9DC01006F61645F7570646157
:1002100074696E675F757365725F73656374696F28
:100220006E5F626567696E006F6164496D674964FE
:10023000656E746966795772697465006F616449A7
:100240006D674964656E7469667952657100000076
:1002500000470000ADE201000447000023E3010075
:10026000084700002FE30100150C00003FE30100E8
:10027000130C000055E40100000C00002FE5010004
:1002800050020200060000006F6164735F656E61DA
:10029000626C655F7265715F68616E646C65720047
:1002A0006F6164735F666663325F7570645F726509
:1002B000715F68616E646C65720000000000000090
:1002C000BC0302005E084000050001007FED010054
:1002D000E7EC0100D1EB010019F10100FFFF000084
:1002E00057EC0100042400004BEC01000324000043
:1002F0004FEC01000124000053EC0100DC0202007D
:10030000040000000214000069EC01000403020074
:1003100001000000FFFF0000DFED010003450000C9
:10032000D7ED010002450000DBED010004450000AF
:10033000E3ED01000545000007EE01001403020093
:1003400005000000FFFF000053F00100010D000058
:1003500065EE0100000D00007FEE01000A0E0000B6
:1003600027EF01000C0E0000B3EF0100010E0000AA
:10037000D5EF0100000E000027F00100030E000081
:100380002BF001001C0D000043F001002C0E0000BA
:10039000ABF00100110E0000AFF00100020C0000F4
:1003A000B3F001000F0E0000B7F00100010F0000D4
:1003B0008DF00100020F00004FF001004403020025
:1003C0000F000000FFFF000071F101000147000075
:1003D0006DF101000247000075F1010005470000C2
:1003E000D1F101000647000087F101000947000034
:1003F000D5F10100C403020006000000000001A0C6
:100400000000000000658000086580001065800025
:100410001865800020658000046580000C65800000
:10042000146580001C6580002465800000000000C9
:1004300000000000000000000000000000000000BC
:1004400000000000FFFF000001E5AE89E4BC975FFB
:0C045000464646464646000000000000FC
:040000050001B0A4A2
:00000001FF
